{
  "_format": "hh-sol-artifact-1",
  "contractName": "Auction",
  "sourceName": "src/contracts/Auction.sol",
  "abi": [
    {
      "inputs": [
        {
          "internalType": "uint256",
          "name": "_royaltyFee",
          "type": "uint256"
        }
      ],
      "stateMutability": "nonpayable",
      "type": "constructor"
    },
    {
      "anonymous": false,
      "inputs": [
        {
          "indexed": true,
          "internalType": "address",
          "name": "owner",
          "type": "address"
        },
        {
          "indexed": true,
          "internalType": "address",
          "name": "approved",
          "type": "address"
        },
        {
          "indexed": true,
          "internalType": "uint256",
          "name": "tokenId",
          "type": "uint256"
        }
      ],
      "name": "Approval",
      "type": "event"
    },
    {
      "anonymous": false,
      "inputs": [
        {
          "indexed": true,
          "internalType": "address",
          "name": "owner",
          "type": "address"
        },
        {
          "indexed": true,
          "internalType": "address",
          "name": "operator",
          "type": "address"
        },
        {
          "indexed": false,
          "internalType": "bool",
          "name": "approved",
          "type": "bool"
        }
      ],
      "name": "ApprovalForAll",
      "type": "event"
    },
    {
      "anonymous": false,
      "inputs": [
        {
          "indexed": true,
          "internalType": "uint256",
          "name": "tokenId",
          "type": "uint256"
        },
        {
          "indexed": false,
          "internalType": "address",
          "name": "seller",
          "type": "address"
        },
        {
          "indexed": false,
          "internalType": "address",
          "name": "owner",
          "type": "address"
        },
        {
          "indexed": false,
          "internalType": "uint256",
          "name": "price",
          "type": "uint256"
        },
        {
          "indexed": false,
          "internalType": "bool",
          "name": "sold",
          "type": "bool"
        }
      ],
      "name": "AuctionItemCreated",
      "type": "event"
    },
    {
      "anonymous": false,
      "inputs": [
        {
          "indexed": true,
          "internalType": "address",
          "name": "from",
          "type": "address"
        },
        {
          "indexed": true,
          "internalType": "address",
          "name": "to",
          "type": "address"
        },
        {
          "indexed": true,
          "internalType": "uint256",
          "name": "tokenId",
          "type": "uint256"
        }
      ],
      "name": "Transfer",
      "type": "event"
    },
    {
      "inputs": [
        {
          "internalType": "address",
          "name": "to",
          "type": "address"
        },
        {
          "internalType": "uint256",
          "name": "tokenId",
          "type": "uint256"
        }
      ],
      "name": "approve",
      "outputs": [],
      "stateMutability": "nonpayable",
      "type": "function"
    },
    {
      "inputs": [
        {
          "internalType": "address",
          "name": "owner",
          "type": "address"
        }
      ],
      "name": "balanceOf",
      "outputs": [
        {
          "internalType": "uint256",
          "name": "",
          "type": "uint256"
        }
      ],
      "stateMutability": "view",
      "type": "function"
    },
    {
      "inputs": [
        {
          "internalType": "uint256",
          "name": "tokenId",
          "type": "uint256"
        }
      ],
      "name": "buyAuctionedItem",
      "outputs": [],
      "stateMutability": "payable",
      "type": "function"
    },
    {
      "inputs": [
        {
          "internalType": "uint256",
          "name": "tokenId",
          "type": "uint256"
        },
        {
          "internalType": "uint256",
          "name": "price",
          "type": "uint256"
        }
      ],
      "name": "chanagePrice",
      "outputs": [],
      "stateMutability": "nonpayable",
      "type": "function"
    },
    {
      "inputs": [
        {
          "internalType": "uint256",
          "name": "tokenId",
          "type": "uint256"
        },
        {
          "internalType": "uint256",
          "name": "bid",
          "type": "uint256"
        }
      ],
      "name": "claimPrize",
      "outputs": [],
      "stateMutability": "nonpayable",
      "type": "function"
    },
    {
      "inputs": [],
      "name": "companyAcc",
      "outputs": [
        {
          "internalType": "address",
          "name": "",
          "type": "address"
        }
      ],
      "stateMutability": "view",
      "type": "function"
    },
    {
      "inputs": [
        {
          "internalType": "string",
          "name": "name",
          "type": "string"
        },
        {
          "internalType": "string",
          "name": "description",
          "type": "string"
        },
        {
          "internalType": "string",
          "name": "image",
          "type": "string"
        },
        {
          "internalType": "string",
          "name": "tokenURI",
          "type": "string"
        },
        {
          "internalType": "uint256",
          "name": "price",
          "type": "uint256"
        }
      ],
      "name": "createAuction",
      "outputs": [],
      "stateMutability": "payable",
      "type": "function"
    },
    {
      "inputs": [
        {
          "internalType": "uint256",
          "name": "tokenId",
          "type": "uint256"
        }
      ],
      "name": "getApproved",
      "outputs": [
        {
          "internalType": "address",
          "name": "",
          "type": "address"
        }
      ],
      "stateMutability": "view",
      "type": "function"
    },
    {
      "inputs": [
        {
          "internalType": "uint256",
          "name": "tokenId",
          "type": "uint256"
        }
      ],
      "name": "getAuction",
      "outputs": [
        {
          "components": [
            {
              "internalType": "string",
              "name": "name",
              "type": "string"
            },
            {
              "internalType": "string",
              "name": "description",
              "type": "string"
            },
            {
              "internalType": "string",
              "name": "image",
              "type": "string"
            },
            {
              "internalType": "uint256",
              "name": "tokenId",
              "type": "uint256"
            },
            {
              "internalType": "address",
              "name": "seller",
              "type": "address"
            },
            {
              "internalType": "address",
              "name": "owner",
              "type": "address"
            },
            {
              "internalType": "address",
              "name": "winner",
              "type": "address"
            },
            {
              "internalType": "uint256",
              "name": "price",
              "type": "uint256"
            },
            {
              "internalType": "bool",
              "name": "sold",
              "type": "bool"
            },
            {
              "internalType": "bool",
              "name": "live",
              "type": "bool"
            },
            {
              "internalType": "bool",
              "name": "biddable",
              "type": "bool"
            },
            {
              "internalType": "uint256",
              "name": "bids",
              "type": "uint256"
            },
            {
              "internalType": "uint256",
              "name": "duration",
              "type": "uint256"
            }
          ],
          "internalType": "struct Auction.AuctionStruct",
          "name": "",
          "type": "tuple"
        }
      ],
      "stateMutability": "view",
      "type": "function"
    },
    {
      "inputs": [],
      "name": "getAuctions",
      "outputs": [
        {
          "components": [
            {
              "internalType": "string",
              "name": "name",
              "type": "string"
            },
            {
              "internalType": "string",
              "name": "description",
              "type": "string"
            },
            {
              "internalType": "string",
              "name": "image",
              "type": "string"
            },
            {
              "internalType": "uint256",
              "name": "tokenId",
              "type": "uint256"
            },
            {
              "internalType": "address",
              "name": "seller",
              "type": "address"
            },
            {
              "internalType": "address",
              "name": "owner",
              "type": "address"
            },
            {
              "internalType": "address",
              "name": "winner",
              "type": "address"
            },
            {
              "internalType": "uint256",
              "name": "price",
              "type": "uint256"
            },
            {
              "internalType": "bool",
              "name": "sold",
              "type": "bool"
            },
            {
              "internalType": "bool",
              "name": "live",
              "type": "bool"
            },
            {
              "internalType": "bool",
              "name": "biddable",
              "type": "bool"
            },
            {
              "internalType": "uint256",
              "name": "bids",
              "type": "uint256"
            },
            {
              "internalType": "uint256",
              "name": "duration",
              "type": "uint256"
            }
          ],
          "internalType": "struct Auction.AuctionStruct[]",
          "name": "Auctions",
          "type": "tuple[]"
        }
      ],
      "stateMutability": "view",
      "type": "function"
    },
    {
      "inputs": [
        {
          "internalType": "uint256",
          "name": "tokenId",
          "type": "uint256"
        }
      ],
      "name": "getBidders",
      "outputs": [
        {
          "components": [
            {
              "internalType": "address",
              "name": "bidder",
              "type": "address"
            },
            {
              "internalType": "uint256",
              "name": "price",
              "type": "uint256"
            },
            {
              "internalType": "uint256",
              "name": "timestamp",
              "type": "uint256"
            },
            {
              "internalType": "bool",
              "name": "refunded",
              "type": "bool"
            },
            {
              "internalType": "bool",
              "name": "won",
              "type": "bool"
            }
          ],
          "internalType": "struct Auction.BiddableStruct[]",
          "name": "",
          "type": "tuple[]"
        }
      ],
      "stateMutability": "view",
      "type": "function"
    },
    {
      "inputs": [],
      "name": "getListingPrice",
      "outputs": [
        {
          "internalType": "uint256",
          "name": "",
          "type": "uint256"
        }
      ],
      "stateMutability": "view",
      "type": "function"
    },
    {
      "inputs": [],
      "name": "getLiveAuctions",
      "outputs": [
        {
          "components": [
            {
              "internalType": "string",
              "name": "name",
              "type": "string"
            },
            {
              "internalType": "string",
              "name": "description",
              "type": "string"
            },
            {
              "internalType": "string",
              "name": "image",
              "type": "string"
            },
            {
              "internalType": "uint256",
              "name": "tokenId",
              "type": "uint256"
            },
            {
              "internalType": "address",
              "name": "seller",
              "type": "address"
            },
            {
              "internalType": "address",
              "name": "owner",
              "type": "address"
            },
            {
              "internalType": "address",
              "name": "winner",
              "type": "address"
            },
            {
              "internalType": "uint256",
              "name": "price",
              "type": "uint256"
            },
            {
              "internalType": "bool",
              "name": "sold",
              "type": "bool"
            },
            {
              "internalType": "bool",
              "name": "live",
              "type": "bool"
            },
            {
              "internalType": "bool",
              "name": "biddable",
              "type": "bool"
            },
            {
              "internalType": "uint256",
              "name": "bids",
              "type": "uint256"
            },
            {
              "internalType": "uint256",
              "name": "duration",
              "type": "uint256"
            }
          ],
          "internalType": "struct Auction.AuctionStruct[]",
          "name": "Auctions",
          "type": "tuple[]"
        }
      ],
      "stateMutability": "view",
      "type": "function"
    },
    {
      "inputs": [],
      "name": "getMyAuctions",
      "outputs": [
        {
          "components": [
            {
              "internalType": "string",
              "name": "name",
              "type": "string"
            },
            {
              "internalType": "string",
              "name": "description",
              "type": "string"
            },
            {
              "internalType": "string",
              "name": "image",
              "type": "string"
            },
            {
              "internalType": "uint256",
              "name": "tokenId",
              "type": "uint256"
            },
            {
              "internalType": "address",
              "name": "seller",
              "type": "address"
            },
            {
              "internalType": "address",
              "name": "owner",
              "type": "address"
            },
            {
              "internalType": "address",
              "name": "winner",
              "type": "address"
            },
            {
              "internalType": "uint256",
              "name": "price",
              "type": "uint256"
            },
            {
              "internalType": "bool",
              "name": "sold",
              "type": "bool"
            },
            {
              "internalType": "bool",
              "name": "live",
              "type": "bool"
            },
            {
              "internalType": "bool",
              "name": "biddable",
              "type": "bool"
            },
            {
              "internalType": "uint256",
              "name": "bids",
              "type": "uint256"
            },
            {
              "internalType": "uint256",
              "name": "duration",
              "type": "uint256"
            }
          ],
          "internalType": "struct Auction.AuctionStruct[]",
          "name": "Auctions",
          "type": "tuple[]"
        }
      ],
      "stateMutability": "view",
      "type": "function"
    },
    {
      "inputs": [],
      "name": "getSoldAuctions",
      "outputs": [
        {
          "components": [
            {
              "internalType": "string",
              "name": "name",
              "type": "string"
            },
            {
              "internalType": "string",
              "name": "description",
              "type": "string"
            },
            {
              "internalType": "string",
              "name": "image",
              "type": "string"
            },
            {
              "internalType": "uint256",
              "name": "tokenId",
              "type": "uint256"
            },
            {
              "internalType": "address",
              "name": "seller",
              "type": "address"
            },
            {
              "internalType": "address",
              "name": "owner",
              "type": "address"
            },
            {
              "internalType": "address",
              "name": "winner",
              "type": "address"
            },
            {
              "internalType": "uint256",
              "name": "price",
              "type": "uint256"
            },
            {
              "internalType": "bool",
              "name": "sold",
              "type": "bool"
            },
            {
              "internalType": "bool",
              "name": "live",
              "type": "bool"
            },
            {
              "internalType": "bool",
              "name": "biddable",
              "type": "bool"
            },
            {
              "internalType": "uint256",
              "name": "bids",
              "type": "uint256"
            },
            {
              "internalType": "uint256",
              "name": "duration",
              "type": "uint256"
            }
          ],
          "internalType": "struct Auction.AuctionStruct[]",
          "name": "Auctions",
          "type": "tuple[]"
        }
      ],
      "stateMutability": "view",
      "type": "function"
    },
    {
      "inputs": [],
      "name": "getUnsoldAuctions",
      "outputs": [
        {
          "components": [
            {
              "internalType": "string",
              "name": "name",
              "type": "string"
            },
            {
              "internalType": "string",
              "name": "description",
              "type": "string"
            },
            {
              "internalType": "string",
              "name": "image",
              "type": "string"
            },
            {
              "internalType": "uint256",
              "name": "tokenId",
              "type": "uint256"
            },
            {
              "internalType": "address",
              "name": "seller",
              "type": "address"
            },
            {
              "internalType": "address",
              "name": "owner",
              "type": "address"
            },
            {
              "internalType": "address",
              "name": "winner",
              "type": "address"
            },
            {
              "internalType": "uint256",
              "name": "price",
              "type": "uint256"
            },
            {
              "internalType": "bool",
              "name": "sold",
              "type": "bool"
            },
            {
              "internalType": "bool",
              "name": "live",
              "type": "bool"
            },
            {
              "internalType": "bool",
              "name": "biddable",
              "type": "bool"
            },
            {
              "internalType": "uint256",
              "name": "bids",
              "type": "uint256"
            },
            {
              "internalType": "uint256",
              "name": "duration",
              "type": "uint256"
            }
          ],
          "internalType": "struct Auction.AuctionStruct[]",
          "name": "Auctions",
          "type": "tuple[]"
        }
      ],
      "stateMutability": "view",
      "type": "function"
    },
    {
      "inputs": [
        {
          "internalType": "address",
          "name": "owner",
          "type": "address"
        },
        {
          "internalType": "address",
          "name": "operator",
          "type": "address"
        }
      ],
      "name": "isApprovedForAll",
      "outputs": [
        {
          "internalType": "bool",
          "name": "",
          "type": "bool"
        }
      ],
      "stateMutability": "view",
      "type": "function"
    },
    {
      "inputs": [],
      "name": "name",
      "outputs": [
        {
          "internalType": "string",
          "name": "",
          "type": "string"
        }
      ],
      "stateMutability": "view",
      "type": "function"
    },
    {
      "inputs": [
        {
          "internalType": "uint256",
          "name": "tokenId",
          "type": "uint256"
        },
        {
          "internalType": "bool",
          "name": "biddable",
          "type": "bool"
        },
        {
          "internalType": "uint256",
          "name": "sec",
          "type": "uint256"
        },
        {
          "internalType": "uint256",
          "name": "min",
          "type": "uint256"
        },
        {
          "internalType": "uint256",
          "name": "hour",
          "type": "uint256"
        },
        {
          "internalType": "uint256",
          "name": "day",
          "type": "uint256"
        }
      ],
      "name": "offerAuction",
      "outputs": [],
      "stateMutability": "nonpayable",
      "type": "function"
    },
    {
      "inputs": [
        {
          "internalType": "uint256",
          "name": "tokenId",
          "type": "uint256"
        }
      ],
      "name": "ownerOf",
      "outputs": [
        {
          "internalType": "address",
          "name": "",
          "type": "address"
        }
      ],
      "stateMutability": "view",
      "type": "function"
    },
    {
      "inputs": [
        {
          "internalType": "uint256",
          "name": "tokenId",
          "type": "uint256"
        }
      ],
      "name": "placeBid",
      "outputs": [],
      "stateMutability": "payable",
      "type": "function"
    },
    {
      "inputs": [],
      "name": "royaltyFee",
      "outputs": [
        {
          "internalType": "uint256",
          "name": "",
          "type": "uint256"
        }
      ],
      "stateMutability": "view",
      "type": "function"
    },
    {
      "inputs": [
        {
          "internalType": "address",
          "name": "from",
          "type": "address"
        },
        {
          "internalType": "address",
          "name": "to",
          "type": "address"
        },
        {
          "internalType": "uint256",
          "name": "tokenId",
          "type": "uint256"
        }
      ],
      "name": "safeTransferFrom",
      "outputs": [],
      "stateMutability": "nonpayable",
      "type": "function"
    },
    {
      "inputs": [
        {
          "internalType": "address",
          "name": "from",
          "type": "address"
        },
        {
          "internalType": "address",
          "name": "to",
          "type": "address"
        },
        {
          "internalType": "uint256",
          "name": "tokenId",
          "type": "uint256"
        },
        {
          "internalType": "bytes",
          "name": "data",
          "type": "bytes"
        }
      ],
      "name": "safeTransferFrom",
      "outputs": [],
      "stateMutability": "nonpayable",
      "type": "function"
    },
    {
      "inputs": [
        {
          "internalType": "address",
          "name": "operator",
          "type": "address"
        },
        {
          "internalType": "bool",
          "name": "approved",
          "type": "bool"
        }
      ],
      "name": "setApprovalForAll",
      "outputs": [],
      "stateMutability": "nonpayable",
      "type": "function"
    },
    {
      "inputs": [
        {
          "internalType": "uint256",
          "name": "price",
          "type": "uint256"
        }
      ],
      "name": "setListingPrice",
      "outputs": [],
      "stateMutability": "nonpayable",
      "type": "function"
    },
    {
      "inputs": [
        {
          "internalType": "bytes4",
          "name": "interfaceId",
          "type": "bytes4"
        }
      ],
      "name": "supportsInterface",
      "outputs": [
        {
          "internalType": "bool",
          "name": "",
          "type": "bool"
        }
      ],
      "stateMutability": "view",
      "type": "function"
    },
    {
      "inputs": [],
      "name": "symbol",
      "outputs": [
        {
          "internalType": "string",
          "name": "",
          "type": "string"
        }
      ],
      "stateMutability": "view",
      "type": "function"
    },
    {
      "inputs": [
        {
          "internalType": "uint256",
          "name": "tokenId",
          "type": "uint256"
        }
      ],
      "name": "tokenURI",
      "outputs": [
        {
          "internalType": "string",
          "name": "",
          "type": "string"
        }
      ],
      "stateMutability": "view",
      "type": "function"
    },
    {
      "inputs": [
        {
          "internalType": "address",
          "name": "from",
          "type": "address"
        },
        {
          "internalType": "address",
          "name": "to",
          "type": "address"
        },
        {
          "internalType": "uint256",
          "name": "tokenId",
          "type": "uint256"
        }
      ],
      "name": "transferFrom",
      "outputs": [],
      "stateMutability": "nonpayable",
      "type": "function"
    }
  ],
  "bytecode": "0x608060405266470de4df820000600b553480156200001c57600080fd5b50604051620043df380380620043df8339810160408190526200003f9162000170565b604080518082018252600f81526e44616c746f6e696320546f6b656e7360881b60208083019182528351808501909452600384526211105560ea1b9084015281519192916200009191600091620000ca565b508051620000a7906001906020840190620000ca565b5050600160075550600955600a80546001600160a01b03191633179055620001c7565b828054620000d8906200018a565b90600052602060002090601f016020900481019282620000fc576000855562000147565b82601f106200011757805160ff191683800117855562000147565b8280016001018555821562000147579182015b82811115620001475782518255916020019190600101906200012a565b506200015592915062000159565b5090565b5b808211156200015557600081556001016200015a565b6000602082840312156200018357600080fd5b5051919050565b600181811c908216806200019f57607f821691505b60208210811415620001c157634e487b7160e01b600052602260045260246000fd5b50919050565b61420880620001d76000396000f3fe6080604052600436106101cd5760003560e01c806395d89b41116100f7578063bf65a33311610095578063db0bd5c911610064578063db0bd5c91461050e578063e985e9c514610523578063f42fc7d61461056c578063f5a06acf1461058c57600080fd5b8063bf65a333146104a4578063c87b56dd146104b9578063d36acc39146104d9578063d7c06919146104f957600080fd5b8063a22cb465116100d1578063a22cb4651461042e578063a923f18c1461044e578063b88d4fde1461046e578063b8997a971461048e57600080fd5b806395d89b41146103f15780639979ef45146104065780639c196f7f1461041957600080fd5b806342842e0e1161016f57806370a082311161013e57806370a082311461036457806378bd7935146103845780637b154140146103b15780637c726b69146103d157600080fd5b806342842e0e146102d55780634fa7b507146102f557806355faaa33146103225780636352211e1461034457600080fd5b8063095ea7b3116101ab578063095ea7b31461026157806312e855851461028357806323b872dd146102a257806333748dcb146102c257600080fd5b806301ffc9a7146101d257806306fdde0314610207578063081812fc14610229575b600080fd5b3480156101de57600080fd5b506101f26101ed36600461395e565b61059f565b60405190151581526020015b60405180910390f35b34801561021357600080fd5b5061021c6105f1565b6040516101fe91906139d3565b34801561023557600080fd5b506102496102443660046139e6565b610683565b6040516001600160a01b0390911681526020016101fe565b34801561026d57600080fd5b5061028161027c366004613a1b565b6106aa565b005b34801561028f57600080fd5b50600b545b6040519081526020016101fe565b3480156102ae57600080fd5b506102816102bd366004613a45565b6107c5565b6102816102d0366004613b2d565b6107f6565b3480156102e157600080fd5b506102816102f0366004613a45565b610c3c565b34801561030157600080fd5b506103156103103660046139e6565b610c57565b6040516101fe9190613be2565b34801561032e57600080fd5b50610337610d09565b6040516101fe9190613d5d565b34801561035057600080fd5b5061024961035f3660046139e6565b61109d565b34801561037057600080fd5b5061029461037f366004613dbf565b6110fd565b34801561039057600080fd5b506103a461039f3660046139e6565b611183565b6040516101fe9190613dda565b3480156103bd57600080fd5b506102816103cc366004613ded565b6113e5565b3480156103dd57600080fd5b506102816103ec3660046139e6565b611645565b3480156103fd57600080fd5b5061021c611674565b6102816104143660046139e6565b611683565b34801561042557600080fd5b506103376118bb565b34801561043a57600080fd5b50610281610449366004613e1f565b611c47565b34801561045a57600080fd5b50610281610469366004613e52565b611c52565b34801561047a57600080fd5b50610281610489366004613ea0565b611dcd565b34801561049a57600080fd5b5061029460095481565b3480156104b057600080fd5b50610337611e05565b3480156104c557600080fd5b5061021c6104d43660046139e6565b6121a3565b3480156104e557600080fd5b50600a54610249906001600160a01b031681565b34801561050557600080fd5b506103376122b4565b34801561051a57600080fd5b506103376125ba565b34801561052f57600080fd5b506101f261053e366004613f1c565b6001600160a01b03918216600090815260056020908152604080832093909416825291909152205460ff1690565b34801561057857600080fd5b50610281610587366004613ded565b61295c565b61028161059a3660046139e6565b612a5b565b60006001600160e01b031982166380ac58cd60e01b14806105d057506001600160e01b03198216635b5e139f60e01b145b806105eb57506301ffc9a760e01b6001600160e01b03198316145b92915050565b60606000805461060090613f46565b80601f016020809104026020016040519081016040528092919081815260200182805461062c90613f46565b80156106795780601f1061064e57610100808354040283529160200191610679565b820191906000526020600020905b81548152906001019060200180831161065c57829003601f168201915b5050505050905090565b600061068e82612cb3565b506000908152600460205260409020546001600160a01b031690565b60006106b58261109d565b9050806001600160a01b0316836001600160a01b031614156107285760405162461bcd60e51b815260206004820152602160248201527f4552433732313a20617070726f76616c20746f2063757272656e74206f776e656044820152603960f91b60648201526084015b60405180910390fd5b336001600160a01b03821614806107445750610744813361053e565b6107b65760405162461bcd60e51b815260206004820152603d60248201527f4552433732313a20617070726f76652063616c6c6572206973206e6f7420746f60448201527f6b656e206f776e6572206f7220617070726f76656420666f7220616c6c000000606482015260840161071f565b6107c08383612d12565b505050565b6107cf3382612d80565b6107eb5760405162461bcd60e51b815260040161071f90613f81565b6107c0838383612dfe565b6107fe612f62565b6000811161085c5760405162461bcd60e51b815260206004820152602560248201527f53616c6573207072696365206d7573742062652067726561746572207468616e604482015264207a65726f60d81b606482015260840161071f565b600b543410156108c35760405162461bcd60e51b815260206004820152602c60248201527f5072696365206d7573742062652067726561746572207468616e20746865206c60448201526b697374696e6720707269636560a01b606482015260840161071f565b600085511161090b5760405162461bcd60e51b81526020600482015260146024820152736e616d652063616e6e6f7420626520656d70747960601b604482015260640161071f565b600084511161095c5760405162461bcd60e51b815260206004820152601b60248201527f6465736372697074696f6e2063616e6e6f7420626520656d7074790000000000604482015260640161071f565b60008351116109a55760405162461bcd60e51b8152602060048201526015602482015274696d6167652063616e6e6f7420626520656d70747960581b604482015260640161071f565b60008251116109f65760405162461bcd60e51b815260206004820152601860248201527f746f6b656e5552492063616e6e6f7420626520656d7074790000000000000000604482015260640161071f565b6109ff82612fbc565b610a425760405162461bcd60e51b815260206004820152601460248201527321b7bab632103737ba1036b4b73a103a37b5b2b760611b604482015260640161071f565b6000610a4d60085490565b9050610a576137cf565b60608101829052868152602081018690526040810185905260e08101839052610a836000808080612ff6565b610180820152336080820181905260a08201526000828152600c60209081526040909120825180518493610abb928492910190613858565b506020828101518051610ad49260018501920190613858565b5060408201518051610af0916002840191602090910190613858565b506060820151600382015560808201516004820180546001600160a01b03199081166001600160a01b039384161790915560a0840151600584018054831691841691909117905560c084015160068401805490921690831617905560e083015160078301556101008084015160088401805461012087015161014088015161ffff1990921693151561ff001916939093179215159093029190911762ff000019166201000092151592909202919091179055610160830151600983015561018090920151600a918201556000848152600d60205260409020805460ff1916600117905554610bdf911634613058565b604080513381526000602082018190528183018690526060820152905183917fa693a8f68fe4df789541ddd1b84d32ccaea90adddcc88406b4bbbf6466328d3c919081900360800190a25050610c356001600755565b5050505050565b6107c083838360405180602001604052806000815250611dcd565b6060600e6000838152602001908152602001600020805480602002602001604051908101604052809291908181526020016000905b82821015610cfe5760008481526020908190206040805160a0810182526004860290920180546001600160a01b03168352600180820154848601526002820154928401929092526003015460ff8082161515606085015261010090910416151560808301529083529092019101610c8c565b505050509050919050565b60606000805b600854811015610d6457600c6000610d28836001613fe4565b815260208101919091526040016000206008015460ff1615610d525781610d4e81613ffc565b9250505b80610d5c81613ffc565b915050610d0f565b508067ffffffffffffffff811115610d7e57610d7e613a81565b604051908082528060200260200182016040528015610db757816020015b610da46137cf565b815260200190600190039081610d9c5790505b5091506000805b60085481101561109757600c6000610dd7836001613fe4565b815260208101919091526040016000206008015460ff161561108557600c6000610e02836001613fe4565b8152602001908152602001600020604051806101a0016040529081600082018054610e2c90613f46565b80601f0160208091040260200160405190810160405280929190818152602001828054610e5890613f46565b8015610ea55780601f10610e7a57610100808354040283529160200191610ea5565b820191906000526020600020905b815481529060010190602001808311610e8857829003601f168201915b50505050508152602001600182018054610ebe90613f46565b80601f0160208091040260200160405190810160405280929190818152602001828054610eea90613f46565b8015610f375780601f10610f0c57610100808354040283529160200191610f37565b820191906000526020600020905b815481529060010190602001808311610f1a57829003601f168201915b50505050508152602001600282018054610f5090613f46565b80601f0160208091040260200160405190810160405280929190818152602001828054610f7c90613f46565b8015610fc95780601f10610f9e57610100808354040283529160200191610fc9565b820191906000526020600020905b815481529060010190602001808311610fac57829003601f168201915b50505091835250506003820154602082015260048201546001600160a01b0390811660408301526005830154811660608301526006830154166080820152600782015460a0820152600882015460ff808216151560c08401526101008083048216151560e085015262010000909204161515908201526009820154610120820152600a9091015461014090910152845185908490811061106b5761106b614017565b6020026020010181905250818061108190613ffc565b9250505b8061108f81613ffc565b915050610dbe565b50505090565b6000818152600260205260408120546001600160a01b0316806105eb5760405162461bcd60e51b8152602060048201526018602482015277115490cdcc8c4e881a5b9d985b1a59081d1bdad95b88125160421b604482015260640161071f565b60006001600160a01b0382166111675760405162461bcd60e51b815260206004820152602960248201527f4552433732313a2061646472657373207a65726f206973206e6f7420612076616044820152683634b21037bbb732b960b91b606482015260840161071f565b506001600160a01b031660009081526003602052604090205490565b61118b6137cf565b6000828152600c60205260409081902081516101a081019092528054829082906111b490613f46565b80601f01602080910402602001604051908101604052809291908181526020018280546111e090613f46565b801561122d5780601f106112025761010080835404028352916020019161122d565b820191906000526020600020905b81548152906001019060200180831161121057829003601f168201915b5050505050815260200160018201805461124690613f46565b80601f016020809104026020016040519081016040528092919081815260200182805461127290613f46565b80156112bf5780601f10611294576101008083540402835291602001916112bf565b820191906000526020600020905b8154815290600101906020018083116112a257829003601f168201915b505050505081526020016002820180546112d890613f46565b80601f016020809104026020016040519081016040528092919081815260200182805461130490613f46565b80156113515780601f1061132657610100808354040283529160200191611351565b820191906000526020600020905b81548152906001019060200180831161133457829003601f168201915b50505091835250506003820154602082015260048201546001600160a01b0390811660408301526005830154811660608301526006830154166080820152600782015460a0820152600882015460ff808216151560c08401526101008083048216151560e085015262010000909204161515908201526009820154610120820152600a909101546101409091015292915050565b6113ed612f62565b6000828152600c60205260408120600a01549061140c90808080612ff6565b1161144e5760405162461bcd60e51b815260206004820152601260248201527141756374696f6e207374696c6c206c69766560701b604482015260640161071f565b6000828152600c60205260409020600601546001600160a01b031633146114b05760405162461bcd60e51b81526020600482015260166024820152752cb7ba9030b932903737ba103a3432903bb4b73732b960511b604482015260640161071f565b6000828152600e60205260409020805460019190839081106114d4576114d4614017565b906000526020600020906004020160030160016101000a81548160ff0219169083151502179055506000600c60008481526020019081526020016000206007015490506000606460095483611529919061402d565b611533919061404c565b6000858152600c6020526040812060048101546005820180546006840180546001600160a01b031990811690915560088501805461ffff191660011790556009909401859055928316331790559293506001600160a01b0392831692169061159d90808080612ff6565b6000878152600c60205260409020600a01556115c2816115bd858761406e565b613058565b6115cc8284613058565b6040516323b872dd60e01b8152306004820181905233602483015260448201889052906323b872dd90606401600060405180830381600087803b15801561161257600080fd5b505af1158015611626573d6000803e3d6000fd5b50505050611633866130bf565b505050506116416001600755565b5050565b600a546001600160a01b0316331461166f5760405162461bcd60e51b815260040161071f90614085565b600b55565b60606001805461060090613f46565b6000818152600c60205260409020600701543410156116d95760405162461bcd60e51b8152602060048201526012602482015271125b9cdd59999a58d95b9d08105b5bdd5b9d60721b604482015260640161071f565b6116e7600080600080612ff6565b6000828152600c60205260409020600a0154116117465760405162461bcd60e51b815260206004820152601a60248201527f41756374696f6e6564204974656d206e6f742061766169626c65000000000000604482015260640161071f565b6000818152600c602052604090206008015462010000900460ff166117ad5760405162461bcd60e51b815260206004820152601860248201527f41756374696f6e206d757374206265206269646461626c650000000000000000604482015260640161071f565b6040805160a08101825260009181018290526060810182905260808101829052338152346020820152906117e390808080612ff6565b60408083019182526000848152600e6020908152828220805460018181018355918452828420875160049092020180546001600160a01b039092166001600160a01b0319909216919091178155828701519181019190915593516002850155606085015160039094018054608087015115156101000261ff00199615159690961661ffff199091161794909417909355848152600c909252812060090180549161188c83613ffc565b9091555050506000908152600c6020526040902034600782015560060180546001600160a01b03191633179055565b60606000805b60085481101561191557600c60006118da836001613fe4565b815260208101919091526040016000206008015460ff1661190357816118ff81613ffc565b9250505b8061190d81613ffc565b9150506118c1565b508067ffffffffffffffff81111561192f5761192f613a81565b60405190808252806020026020018201604052801561196857816020015b6119556137cf565b81526020019060019003908161194d5790505b5091506000805b60085481101561109757600c6000611988836001613fe4565b815260208101919091526040016000206008015460ff16611c3557600c60006119b2836001613fe4565b8152602001908152602001600020604051806101a00160405290816000820180546119dc90613f46565b80601f0160208091040260200160405190810160405280929190818152602001828054611a0890613f46565b8015611a555780601f10611a2a57610100808354040283529160200191611a55565b820191906000526020600020905b815481529060010190602001808311611a3857829003601f168201915b50505050508152602001600182018054611a6e90613f46565b80601f0160208091040260200160405190810160405280929190818152602001828054611a9a90613f46565b8015611ae75780601f10611abc57610100808354040283529160200191611ae7565b820191906000526020600020905b815481529060010190602001808311611aca57829003601f168201915b50505050508152602001600282018054611b0090613f46565b80601f0160208091040260200160405190810160405280929190818152602001828054611b2c90613f46565b8015611b795780601f10611b4e57610100808354040283529160200191611b79565b820191906000526020600020905b815481529060010190602001808311611b5c57829003601f168201915b50505091835250506003820154602082015260048201546001600160a01b0390811660408301526005830154811660608301526006830154166080820152600782015460a0820152600882015460ff808216151560c08401526101008083048216151560e085015262010000909204161515908201526009820154610120820152600a90910154610140909101528451859084908110611c1b57611c1b614017565b60200260200101819052508180611c3190613ffc565b9250505b80611c3f81613ffc565b91505061196f565b6116413383836131c4565b6000868152600c60205260409020600501546001600160a01b03163314611c8b5760405162461bcd60e51b815260040161071f90614085565b6000868152600c602052604090206009015415611cea5760405162461bcd60e51b815260206004820152601f60248201527f57696e6e65722073686f756c6420636c61696d207072697a6520666972737400604482015260640161071f565b6000868152600c6020526040902060080154610100900460ff16611d7257611d13306001611c47565b6040516323b872dd60e01b8152336004820152306024820181905260448201889052906323b872dd90606401600060405180830381600087803b158015611d5957600080fd5b505af1158015611d6d573d6000803e3d6000fd5b505050505b6000868152600c6020526040812060098101919091556008018054861515620100000262ffffff1990911617610100179055611db084848484612ff6565b6000968752600c6020526040909620600a01959095555050505050565b611dd73383612d80565b611df35760405162461bcd60e51b815260040161071f90613f81565b611dff84848484613293565b50505050565b60606000805b600854811015611e685733600c6000611e25846001613fe4565b81526020810191909152604001600020600501546001600160a01b03161415611e565781611e5281613ffc565b9250505b80611e6081613ffc565b915050611e0b565b508067ffffffffffffffff811115611e8257611e82613a81565b604051908082528060200260200182016040528015611ebb57816020015b611ea86137cf565b815260200190600190039081611ea05790505b5091506000805b6008548110156110975733600c6000611edc846001613fe4565b81526020810191909152604001600020600501546001600160a01b0316141561219157600c6000611f0e836001613fe4565b8152602001908152602001600020604051806101a0016040529081600082018054611f3890613f46565b80601f0160208091040260200160405190810160405280929190818152602001828054611f6490613f46565b8015611fb15780601f10611f8657610100808354040283529160200191611fb1565b820191906000526020600020905b815481529060010190602001808311611f9457829003601f168201915b50505050508152602001600182018054611fca90613f46565b80601f0160208091040260200160405190810160405280929190818152602001828054611ff690613f46565b80156120435780601f1061201857610100808354040283529160200191612043565b820191906000526020600020905b81548152906001019060200180831161202657829003601f168201915b5050505050815260200160028201805461205c90613f46565b80601f016020809104026020016040519081016040528092919081815260200182805461208890613f46565b80156120d55780601f106120aa576101008083540402835291602001916120d5565b820191906000526020600020905b8154815290600101906020018083116120b857829003601f168201915b50505091835250506003820154602082015260048201546001600160a01b0390811660408301526005830154811660608301526006830154166080820152600782015460a0820152600882015460ff808216151560c08401526101008083048216151560e085015262010000909204161515908201526009820154610120820152600a9091015461014090910152845185908490811061217757612177614017565b6020026020010181905250818061218d90613ffc565b9250505b8061219b81613ffc565b915050611ec2565b60606121ae82612cb3565b600082815260066020526040812080546121c790613f46565b80601f01602080910402602001604051908101604052809291908181526020018280546121f390613f46565b80156122405780601f1061221557610100808354040283529160200191612240565b820191906000526020600020905b81548152906001019060200180831161222357829003601f168201915b50505050509050600061225e60408051602081019091526000815290565b9050805160001415612271575092915050565b8151156122a357808260405160200161228b9291906140b2565b60405160208183030381529060405292505050919050565b6122ac846132c6565b949350505050565b60606122bf60085490565b67ffffffffffffffff8111156122d7576122d7613a81565b60405190808252806020026020018201604052801561231057816020015b6122fd6137cf565b8152602001906001900390816122f55790505b50905060005b6008548110156125b657600c600061232f836001613fe4565b8152602001908152602001600020604051806101a001604052908160008201805461235990613f46565b80601f016020809104026020016040519081016040528092919081815260200182805461238590613f46565b80156123d25780601f106123a7576101008083540402835291602001916123d2565b820191906000526020600020905b8154815290600101906020018083116123b557829003601f168201915b505050505081526020016001820180546123eb90613f46565b80601f016020809104026020016040519081016040528092919081815260200182805461241790613f46565b80156124645780601f1061243957610100808354040283529160200191612464565b820191906000526020600020905b81548152906001019060200180831161244757829003601f168201915b5050505050815260200160028201805461247d90613f46565b80601f01602080910402602001604051908101604052809291908181526020018280546124a990613f46565b80156124f65780601f106124cb576101008083540402835291602001916124f6565b820191906000526020600020905b8154815290600101906020018083116124d957829003601f168201915b50505091835250506003820154602082015260048201546001600160a01b0390811660408301526005830154811660608301526006830154166080820152600782015460a0820152600882015460ff808216151560c08401526101008083048216151560e085015262010000909204161515908201526009820154610120820152600a9091015461014090910152825183908390811061259857612598614017565b602002602001018190525080806125ae90613ffc565b915050612316565b5090565b60606000805b60085481101561261f576125d8600080600080612ff6565b600c60006125e7846001613fe4565b8152602001908152602001600020600a0154111561260d578161260981613ffc565b9250505b8061261781613ffc565b9150506125c0565b508067ffffffffffffffff81111561263957612639613a81565b60405190808252806020026020018201604052801561267257816020015b61265f6137cf565b8152602001906001900390816126575790505b5091506000805b60085481101561109757612691600080600080612ff6565b600c60006126a0846001613fe4565b8152602001908152602001600020600a0154111561294a57600c60006126c7836001613fe4565b8152602001908152602001600020604051806101a00160405290816000820180546126f190613f46565b80601f016020809104026020016040519081016040528092919081815260200182805461271d90613f46565b801561276a5780601f1061273f5761010080835404028352916020019161276a565b820191906000526020600020905b81548152906001019060200180831161274d57829003601f168201915b5050505050815260200160018201805461278390613f46565b80601f01602080910402602001604051908101604052809291908181526020018280546127af90613f46565b80156127fc5780601f106127d1576101008083540402835291602001916127fc565b820191906000526020600020905b8154815290600101906020018083116127df57829003601f168201915b5050505050815260200160028201805461281590613f46565b80601f016020809104026020016040519081016040528092919081815260200182805461284190613f46565b801561288e5780601f106128635761010080835404028352916020019161288e565b820191906000526020600020905b81548152906001019060200180831161287157829003601f168201915b50505091835250506003820154602082015260048201546001600160a01b0390811660408301526005830154811660608301526006830154166080820152600782015460a0820152600882015460ff808216151560c08401526101008083048216151560e085015262010000909204161515908201526009820154610120820152600a9091015461014090910152845185908490811061293057612930614017565b6020026020010181905250818061294690613ffc565b9250505b8061295481613ffc565b915050612679565b6000828152600c60205260409020600501546001600160a01b031633146129955760405162461bcd60e51b815260040161071f90614085565b6000828152600c60205260408120600a0154906129b490808080612ff6565b116129f65760405162461bcd60e51b815260206004820152601260248201527141756374696f6e207374696c6c206c69766560701b604482015260640161071f565b60008111612a465760405162461bcd60e51b815260206004820152601f60248201527f5072696365206d7573742062652067726561746572207468616e207a65726f00604482015260640161071f565b6000918252600c602052604090912060070155565b612a63612f62565b6000818152600c6020526040902060070154341015612ab95760405162461bcd60e51b8152602060048201526012602482015271125b9cdd59999a58d95b9d08105b5bdd5b9d60721b604482015260640161071f565b612ac7600080600080612ff6565b6000828152600c60205260409020600a015411612b265760405162461bcd60e51b815260206004820152601a60248201527f41756374696f6e6564204974656d206e6f742061766169626c65000000000000604482015260640161071f565b6000818152600c602052604090206008015462010000900460ff1615612b8e5760405162461bcd60e51b815260206004820152601c60248201527f41756374696f6e206d757374206e6f74206265206269646461626c6500000000604482015260640161071f565b6000818152600c6020526040812060048101546005909101546009546001600160a01b03928316939190921691606490612bc8903461402d565b612bd2919061404c565b9050612be2826115bd833461406e565b612bec8382613058565b6040516323b872dd60e01b8152306004820181905233602483015260448201869052906323b872dd90606401600060405180830381600087803b158015612c3257600080fd5b505af1158015612c46573d6000803e3d6000fd5b5050506000858152600c6020526040812060088101805461ffff19166001179055600901819055612c7a9150808080612ff6565b6000858152600c60205260409020600a81019190915560050180546001600160a01b0319163317905550612cb091506130b89050565b50565b6000818152600260205260409020546001600160a01b0316612cb05760405162461bcd60e51b8152602060048201526018602482015277115490cdcc8c4e881a5b9d985b1a59081d1bdad95b88125160421b604482015260640161071f565b600081815260046020526040902080546001600160a01b0319166001600160a01b0384169081179091558190612d478261109d565b6001600160a01b03167f8c5be1e5ebec7d5bd14f71427d1e84f3dd0314c0f7b2291e5b200ac8c7c3b92560405160405180910390a45050565b600080612d8c8361109d565b9050806001600160a01b0316846001600160a01b03161480612dd357506001600160a01b0380821660009081526005602090815260408083209388168352929052205460ff165b806122ac5750836001600160a01b0316612dec84610683565b6001600160a01b031614949350505050565b826001600160a01b0316612e118261109d565b6001600160a01b031614612e375760405162461bcd60e51b815260040161071f906140e1565b6001600160a01b038216612e995760405162461bcd60e51b8152602060048201526024808201527f4552433732313a207472616e7366657220746f20746865207a65726f206164646044820152637265737360e01b606482015260840161071f565b826001600160a01b0316612eac8261109d565b6001600160a01b031614612ed25760405162461bcd60e51b815260040161071f906140e1565b600081815260046020908152604080832080546001600160a01b03199081169091556001600160a01b0387811680865260038552838620805460001901905590871680865283862080546001019055868652600290945282852080549092168417909155905184937fddf252ad1be2c89b69c2b068fc378daa952ba7f163c4a11628f55a4df523b3ef91a4505050565b60026007541415612fb55760405162461bcd60e51b815260206004820152601f60248201527f5265656e7472616e637947756172643a207265656e7472616e742063616c6c00604482015260640161071f565b6002600755565b6000612fcc600880546001019055565b6000612fd760085490565b9050612fe3338261333a565b612fed81846134c5565b50600192915050565b6000613005826201518061402d565b61301184610e1061402d565b61301c86603c61402d565b61302788600161402d565b6130319042613fe4565b61303b9190613fe4565b6130459190613fe4565b61304f9190613fe4565b95945050505050565b6000826001600160a01b03168260405160006040518083038185875af1925050503d80600081146130a5576040519150601f19603f3d011682016040523d82523d6000602084013e6130aa565b606091505b50509050806107c057600080fd5b6001600755565b60005b6000828152600e60205260409020548110156131ac576000828152600e602052604081208054839081106130f8576130f8614017565b60009182526020918290206040805160a081018252600490930290910180546001600160a01b03168084526001820154948401949094526002810154918301919091526003015460ff8082161515606084015261010090910416151560808201529150331461317e5760016060820152805160208201516131799190613058565b613186565b600160808201525b613194600080600080612ff6565b604090910152806131a481613ffc565b9150506130c2565b506000818152600e60205260408120612cb0916138d8565b816001600160a01b0316836001600160a01b031614156132265760405162461bcd60e51b815260206004820152601960248201527f4552433732313a20617070726f766520746f2063616c6c657200000000000000604482015260640161071f565b6001600160a01b03838116600081815260056020908152604080832094871680845294825291829020805460ff191686151590811790915591519182527f17307eab39ab6107e8899845ad3d59bd9653f200f220920489ca2b5937696c31910160405180910390a3505050565b61329e848484612dfe565b6132aa8484848461355f565b611dff5760405162461bcd60e51b815260040161071f90614126565b60606132d182612cb3565b60006132e860408051602081019091526000815290565b905060008151116133085760405180602001604052806000815250613333565b806133128461365a565b6040516020016133239291906140b2565b6040516020818303038152906040525b9392505050565b6001600160a01b0382166133905760405162461bcd60e51b815260206004820181905260248201527f4552433732313a206d696e7420746f20746865207a65726f2061646472657373604482015260640161071f565b6000818152600260205260409020546001600160a01b0316156133f55760405162461bcd60e51b815260206004820152601c60248201527f4552433732313a20746f6b656e20616c7265616479206d696e74656400000000604482015260640161071f565b6000818152600260205260409020546001600160a01b03161561345a5760405162461bcd60e51b815260206004820152601c60248201527f4552433732313a20746f6b656e20616c7265616479206d696e74656400000000604482015260640161071f565b6001600160a01b038216600081815260036020908152604080832080546001019055848352600290915280822080546001600160a01b0319168417905551839291907fddf252ad1be2c89b69c2b068fc378daa952ba7f163c4a11628f55a4df523b3ef908290a45050565b6000828152600260205260409020546001600160a01b03166135405760405162461bcd60e51b815260206004820152602e60248201527f45524337323155524953746f726167653a2055524920736574206f66206e6f6e60448201526d32bc34b9ba32b73a103a37b5b2b760911b606482015260840161071f565b600082815260066020908152604090912082516107c092840190613858565b60006001600160a01b0384163b1561365257604051630a85bd0160e11b81526001600160a01b0385169063150b7a02906135a3903390899088908890600401614178565b6020604051808303816000875af19250505080156135de575060408051601f3d908101601f191682019092526135db918101906141b5565b60015b613638573d80801561360c576040519150601f19603f3d011682016040523d82523d6000602084013e613611565b606091505b5080516136305760405162461bcd60e51b815260040161071f90614126565b805181602001fd5b6001600160e01b031916630a85bd0160e11b1490506122ac565b5060016122ac565b60606000613667836136f7565b600101905060008167ffffffffffffffff81111561368757613687613a81565b6040519080825280601f01601f1916602001820160405280156136b1576020820181803683370190505b5090508181016020015b600019016f181899199a1a9b1b9c1cb0b131b232b360811b600a86061a8153600a85049450846136ea576136ef565b6136bb565b509392505050565b60008072184f03e93ff9f4daa797ed6e38ed64bf6a1f0160401b83106137365772184f03e93ff9f4daa797ed6e38ed64bf6a1f0160401b830492506040015b6d04ee2d6d415b85acef81000000008310613762576d04ee2d6d415b85acef8100000000830492506020015b662386f26fc10000831061378057662386f26fc10000830492506010015b6305f5e1008310613798576305f5e100830492506008015b61271083106137ac57612710830492506004015b606483106137be576064830492506002015b600a83106105eb5760010192915050565b604051806101a001604052806060815260200160608152602001606081526020016000815260200160006001600160a01b0316815260200160006001600160a01b0316815260200160006001600160a01b031681526020016000815260200160001515815260200160001515815260200160001515815260200160008152602001600081525090565b82805461386490613f46565b90600052602060002090601f01602090048101928261388657600085556138cc565b82601f1061389f57805160ff19168380011785556138cc565b828001600101855582156138cc579182015b828111156138cc5782518255916020019190600101906138b1565b506125b69291506138f9565b5080546000825560040290600052602060002090810190612cb0919061390e565b5b808211156125b657600081556001016138fa565b5b808211156125b65780546001600160a01b0319168155600060018201819055600282015560038101805461ffff1916905560040161390f565b6001600160e01b031981168114612cb057600080fd5b60006020828403121561397057600080fd5b813561333381613948565b60005b8381101561399657818101518382015260200161397e565b83811115611dff5750506000910152565b600081518084526139bf81602086016020860161397b565b601f01601f19169290920160200192915050565b60208152600061333360208301846139a7565b6000602082840312156139f857600080fd5b5035919050565b80356001600160a01b0381168114613a1657600080fd5b919050565b60008060408385031215613a2e57600080fd5b613a37836139ff565b946020939093013593505050565b600080600060608486031215613a5a57600080fd5b613a63846139ff565b9250613a71602085016139ff565b9150604084013590509250925092565b634e487b7160e01b600052604160045260246000fd5b600067ffffffffffffffff80841115613ab257613ab2613a81565b604051601f8501601f19908116603f01168101908282118183101715613ada57613ada613a81565b81604052809350858152868686011115613af357600080fd5b858560208301376000602087830101525050509392505050565b600082601f830112613b1e57600080fd5b61333383833560208501613a97565b600080600080600060a08688031215613b4557600080fd5b853567ffffffffffffffff80821115613b5d57600080fd5b613b6989838a01613b0d565b96506020880135915080821115613b7f57600080fd5b613b8b89838a01613b0d565b95506040880135915080821115613ba157600080fd5b613bad89838a01613b0d565b94506060880135915080821115613bc357600080fd5b50613bd088828901613b0d565b95989497509295608001359392505050565b602080825282518282018190526000919060409081850190868401855b82811015613c5057815180516001600160a01b031685528681015187860152858101518686015260608082015115159086015260809081015115159085015260a09093019290850190600101613bff565b5091979650505050505050565b60006101a08251818552613c73828601826139a7565b91505060208301518482036020860152613c8d82826139a7565b91505060408301518482036040860152613ca782826139a7565b915050606083015160608501526080830151613cce60808601826001600160a01b03169052565b5060a0830151613ce960a08601826001600160a01b03169052565b5060c0830151613d0460c08601826001600160a01b03169052565b5060e083015160e085015261010080840151613d238287018215159052565b5050610120838101511515908501526101408084015115159085015261016080840151908501526101809283015192909301919091525090565b6000602080830181845280855180835260408601915060408160051b870101925083870160005b82811015613db257603f19888603018452613da0858351613c5d565b94509285019290850190600101613d84565b5092979650505050505050565b600060208284031215613dd157600080fd5b613333826139ff565b6020815260006133336020830184613c5d565b60008060408385031215613e0057600080fd5b50508035926020909101359150565b80358015158114613a1657600080fd5b60008060408385031215613e3257600080fd5b613e3b836139ff565b9150613e4960208401613e0f565b90509250929050565b60008060008060008060c08789031215613e6b57600080fd5b86359550613e7b60208801613e0f565b95989597505050506040840135936060810135936080820135935060a0909101359150565b60008060008060808587031215613eb657600080fd5b613ebf856139ff565b9350613ecd602086016139ff565b925060408501359150606085013567ffffffffffffffff811115613ef057600080fd5b8501601f81018713613f0157600080fd5b613f1087823560208401613a97565b91505092959194509250565b60008060408385031215613f2f57600080fd5b613f38836139ff565b9150613e49602084016139ff565b600181811c90821680613f5a57607f821691505b60208210811415613f7b57634e487b7160e01b600052602260045260246000fd5b50919050565b6020808252602d908201527f4552433732313a2063616c6c6572206973206e6f7420746f6b656e206f776e6560408201526c1c881bdc88185c1c1c9bdd9959609a1b606082015260800190565b634e487b7160e01b600052601160045260246000fd5b60008219821115613ff757613ff7613fce565b500190565b600060001982141561401057614010613fce565b5060010190565b634e487b7160e01b600052603260045260246000fd5b600081600019048311821515161561404757614047613fce565b500290565b60008261406957634e487b7160e01b600052601260045260246000fd5b500490565b60008282101561408057614080613fce565b500390565b602080825260139082015272556e617574686f72697a656420656e7469747960681b604082015260600190565b600083516140c481846020880161397b565b8351908301906140d881836020880161397b565b01949350505050565b60208082526025908201527f4552433732313a207472616e736665722066726f6d20696e636f72726563742060408201526437bbb732b960d91b606082015260800190565b60208082526032908201527f4552433732313a207472616e7366657220746f206e6f6e20455243373231526560408201527131b2b4bb32b91034b6b83632b6b2b73a32b960711b606082015260800190565b6001600160a01b03858116825284166020820152604081018390526080606082018190526000906141ab908301846139a7565b9695505050505050565b6000602082840312156141c757600080fd5b81516133338161394856fea2646970667358221220eeec6268e27f83fc5adad365662b74ba747dc8d04cdff5e7263f218e2b11477d64736f6c634300080b0033",
  "linkReferences": {},
  "deployedLinkReferences": {}
}