{
  "_format": "hh-sol-artifact-1",
  "contractName": "Auction",
  "sourceName": "src/contracts/Auction.sol",
  "abi": [
    {
      "inputs": [
        {
          "internalType": "uint256",
          "name": "_royaltyFee",
          "type": "uint256"
        }
      ],
      "stateMutability": "nonpayable",
      "type": "constructor"
    },
    {
      "anonymous": false,
      "inputs": [
        {
          "indexed": true,
          "internalType": "address",
          "name": "owner",
          "type": "address"
        },
        {
          "indexed": true,
          "internalType": "address",
          "name": "approved",
          "type": "address"
        },
        {
          "indexed": true,
          "internalType": "uint256",
          "name": "tokenId",
          "type": "uint256"
        }
      ],
      "name": "Approval",
      "type": "event"
    },
    {
      "anonymous": false,
      "inputs": [
        {
          "indexed": true,
          "internalType": "address",
          "name": "owner",
          "type": "address"
        },
        {
          "indexed": true,
          "internalType": "address",
          "name": "operator",
          "type": "address"
        },
        {
          "indexed": false,
          "internalType": "bool",
          "name": "approved",
          "type": "bool"
        }
      ],
      "name": "ApprovalForAll",
      "type": "event"
    },
    {
      "anonymous": false,
      "inputs": [
        {
          "indexed": true,
          "internalType": "uint256",
          "name": "tokenId",
          "type": "uint256"
        },
        {
          "indexed": false,
          "internalType": "address",
          "name": "seller",
          "type": "address"
        },
        {
          "indexed": false,
          "internalType": "address",
          "name": "owner",
          "type": "address"
        },
        {
          "indexed": false,
          "internalType": "uint256",
          "name": "price",
          "type": "uint256"
        },
        {
          "indexed": false,
          "internalType": "bool",
          "name": "sold",
          "type": "bool"
        }
      ],
      "name": "AuctionItemCreated",
      "type": "event"
    },
    {
      "anonymous": false,
      "inputs": [
        {
          "indexed": true,
          "internalType": "address",
          "name": "from",
          "type": "address"
        },
        {
          "indexed": true,
          "internalType": "address",
          "name": "to",
          "type": "address"
        },
        {
          "indexed": true,
          "internalType": "uint256",
          "name": "tokenId",
          "type": "uint256"
        }
      ],
      "name": "Transfer",
      "type": "event"
    },
    {
      "inputs": [
        {
          "internalType": "address",
          "name": "to",
          "type": "address"
        },
        {
          "internalType": "uint256",
          "name": "tokenId",
          "type": "uint256"
        }
      ],
      "name": "approve",
      "outputs": [],
      "stateMutability": "nonpayable",
      "type": "function"
    },
    {
      "inputs": [
        {
          "internalType": "address",
          "name": "owner",
          "type": "address"
        }
      ],
      "name": "balanceOf",
      "outputs": [
        {
          "internalType": "uint256",
          "name": "",
          "type": "uint256"
        }
      ],
      "stateMutability": "view",
      "type": "function"
    },
    {
      "inputs": [
        {
          "internalType": "uint256",
          "name": "tokenId",
          "type": "uint256"
        }
      ],
      "name": "buyAuctionedItem",
      "outputs": [],
      "stateMutability": "payable",
      "type": "function"
    },
    {
      "inputs": [
        {
          "internalType": "uint256",
          "name": "tokenId",
          "type": "uint256"
        },
        {
          "internalType": "uint256",
          "name": "price",
          "type": "uint256"
        }
      ],
      "name": "changePrice",
      "outputs": [],
      "stateMutability": "nonpayable",
      "type": "function"
    },
    {
      "inputs": [
        {
          "internalType": "uint256",
          "name": "tokenId",
          "type": "uint256"
        },
        {
          "internalType": "uint256",
          "name": "bid",
          "type": "uint256"
        }
      ],
      "name": "claimPrize",
      "outputs": [],
      "stateMutability": "nonpayable",
      "type": "function"
    },
    {
      "inputs": [],
      "name": "companyAcc",
      "outputs": [
        {
          "internalType": "address",
          "name": "",
          "type": "address"
        }
      ],
      "stateMutability": "view",
      "type": "function"
    },
    {
      "inputs": [
        {
          "internalType": "string",
          "name": "name",
          "type": "string"
        },
        {
          "internalType": "string",
          "name": "description",
          "type": "string"
        },
        {
          "internalType": "string",
          "name": "image",
          "type": "string"
        },
        {
          "internalType": "string",
          "name": "tokenURI",
          "type": "string"
        },
        {
          "internalType": "uint256",
          "name": "price",
          "type": "uint256"
        }
      ],
      "name": "createAuction",
      "outputs": [],
      "stateMutability": "payable",
      "type": "function"
    },
    {
      "inputs": [
        {
          "internalType": "uint256",
          "name": "tokenId",
          "type": "uint256"
        }
      ],
      "name": "getApproved",
      "outputs": [
        {
          "internalType": "address",
          "name": "",
          "type": "address"
        }
      ],
      "stateMutability": "view",
      "type": "function"
    },
    {
      "inputs": [],
      "name": "getAuction",
      "outputs": [
        {
          "components": [
            {
              "internalType": "string",
              "name": "name",
              "type": "string"
            },
            {
              "internalType": "string",
              "name": "description",
              "type": "string"
            },
            {
              "internalType": "string",
              "name": "image",
              "type": "string"
            },
            {
              "internalType": "uint256",
              "name": "tokenId",
              "type": "uint256"
            },
            {
              "internalType": "address",
              "name": "seller",
              "type": "address"
            },
            {
              "internalType": "address",
              "name": "owner",
              "type": "address"
            },
            {
              "internalType": "address",
              "name": "winner",
              "type": "address"
            },
            {
              "internalType": "uint256",
              "name": "price",
              "type": "uint256"
            },
            {
              "internalType": "bool",
              "name": "sold",
              "type": "bool"
            },
            {
              "internalType": "bool",
              "name": "live",
              "type": "bool"
            },
            {
              "internalType": "uint256",
              "name": "bids",
              "type": "uint256"
            },
            {
              "internalType": "uint256",
              "name": "duration",
              "type": "uint256"
            },
            {
              "internalType": "bool",
              "name": "biddable",
              "type": "bool"
            }
          ],
          "internalType": "struct Auction.AuctionStruct[]",
          "name": "Auctions",
          "type": "tuple[]"
        }
      ],
      "stateMutability": "view",
      "type": "function"
    },
    {
      "inputs": [
        {
          "internalType": "uint256",
          "name": "tokenId",
          "type": "uint256"
        }
      ],
      "name": "getAuction",
      "outputs": [
        {
          "components": [
            {
              "internalType": "string",
              "name": "name",
              "type": "string"
            },
            {
              "internalType": "string",
              "name": "description",
              "type": "string"
            },
            {
              "internalType": "string",
              "name": "image",
              "type": "string"
            },
            {
              "internalType": "uint256",
              "name": "tokenId",
              "type": "uint256"
            },
            {
              "internalType": "address",
              "name": "seller",
              "type": "address"
            },
            {
              "internalType": "address",
              "name": "owner",
              "type": "address"
            },
            {
              "internalType": "address",
              "name": "winner",
              "type": "address"
            },
            {
              "internalType": "uint256",
              "name": "price",
              "type": "uint256"
            },
            {
              "internalType": "bool",
              "name": "sold",
              "type": "bool"
            },
            {
              "internalType": "bool",
              "name": "live",
              "type": "bool"
            },
            {
              "internalType": "uint256",
              "name": "bids",
              "type": "uint256"
            },
            {
              "internalType": "uint256",
              "name": "duration",
              "type": "uint256"
            },
            {
              "internalType": "bool",
              "name": "biddable",
              "type": "bool"
            }
          ],
          "internalType": "struct Auction.AuctionStruct",
          "name": "",
          "type": "tuple"
        }
      ],
      "stateMutability": "view",
      "type": "function"
    },
    {
      "inputs": [
        {
          "internalType": "uint256",
          "name": "tokenId",
          "type": "uint256"
        }
      ],
      "name": "getBidders",
      "outputs": [
        {
          "components": [
            {
              "internalType": "address",
              "name": "bidder",
              "type": "address"
            },
            {
              "internalType": "uint256",
              "name": "price",
              "type": "uint256"
            },
            {
              "internalType": "uint256",
              "name": "timestamp",
              "type": "uint256"
            },
            {
              "internalType": "bool",
              "name": "refunded",
              "type": "bool"
            },
            {
              "internalType": "bool",
              "name": "won",
              "type": "bool"
            }
          ],
          "internalType": "struct Auction.BiddableStruct[]",
          "name": "",
          "type": "tuple[]"
        }
      ],
      "stateMutability": "view",
      "type": "function"
    },
    {
      "inputs": [],
      "name": "getListingPrice",
      "outputs": [
        {
          "internalType": "uint256",
          "name": "",
          "type": "uint256"
        }
      ],
      "stateMutability": "view",
      "type": "function"
    },
    {
      "inputs": [],
      "name": "getLiveAuctions",
      "outputs": [
        {
          "components": [
            {
              "internalType": "string",
              "name": "name",
              "type": "string"
            },
            {
              "internalType": "string",
              "name": "description",
              "type": "string"
            },
            {
              "internalType": "string",
              "name": "image",
              "type": "string"
            },
            {
              "internalType": "uint256",
              "name": "tokenId",
              "type": "uint256"
            },
            {
              "internalType": "address",
              "name": "seller",
              "type": "address"
            },
            {
              "internalType": "address",
              "name": "owner",
              "type": "address"
            },
            {
              "internalType": "address",
              "name": "winner",
              "type": "address"
            },
            {
              "internalType": "uint256",
              "name": "price",
              "type": "uint256"
            },
            {
              "internalType": "bool",
              "name": "sold",
              "type": "bool"
            },
            {
              "internalType": "bool",
              "name": "live",
              "type": "bool"
            },
            {
              "internalType": "uint256",
              "name": "bids",
              "type": "uint256"
            },
            {
              "internalType": "uint256",
              "name": "duration",
              "type": "uint256"
            },
            {
              "internalType": "bool",
              "name": "biddable",
              "type": "bool"
            }
          ],
          "internalType": "struct Auction.AuctionStruct[]",
          "name": "Auctions",
          "type": "tuple[]"
        }
      ],
      "stateMutability": "view",
      "type": "function"
    },
    {
      "inputs": [],
      "name": "getMyAuctions",
      "outputs": [
        {
          "components": [
            {
              "internalType": "string",
              "name": "name",
              "type": "string"
            },
            {
              "internalType": "string",
              "name": "description",
              "type": "string"
            },
            {
              "internalType": "string",
              "name": "image",
              "type": "string"
            },
            {
              "internalType": "uint256",
              "name": "tokenId",
              "type": "uint256"
            },
            {
              "internalType": "address",
              "name": "seller",
              "type": "address"
            },
            {
              "internalType": "address",
              "name": "owner",
              "type": "address"
            },
            {
              "internalType": "address",
              "name": "winner",
              "type": "address"
            },
            {
              "internalType": "uint256",
              "name": "price",
              "type": "uint256"
            },
            {
              "internalType": "bool",
              "name": "sold",
              "type": "bool"
            },
            {
              "internalType": "bool",
              "name": "live",
              "type": "bool"
            },
            {
              "internalType": "uint256",
              "name": "bids",
              "type": "uint256"
            },
            {
              "internalType": "uint256",
              "name": "duration",
              "type": "uint256"
            },
            {
              "internalType": "bool",
              "name": "biddable",
              "type": "bool"
            }
          ],
          "internalType": "struct Auction.AuctionStruct[]",
          "name": "Auctions",
          "type": "tuple[]"
        }
      ],
      "stateMutability": "view",
      "type": "function"
    },
    {
      "inputs": [],
      "name": "getSoldAuctions",
      "outputs": [
        {
          "components": [
            {
              "internalType": "string",
              "name": "name",
              "type": "string"
            },
            {
              "internalType": "string",
              "name": "description",
              "type": "string"
            },
            {
              "internalType": "string",
              "name": "image",
              "type": "string"
            },
            {
              "internalType": "uint256",
              "name": "tokenId",
              "type": "uint256"
            },
            {
              "internalType": "address",
              "name": "seller",
              "type": "address"
            },
            {
              "internalType": "address",
              "name": "owner",
              "type": "address"
            },
            {
              "internalType": "address",
              "name": "winner",
              "type": "address"
            },
            {
              "internalType": "uint256",
              "name": "price",
              "type": "uint256"
            },
            {
              "internalType": "bool",
              "name": "sold",
              "type": "bool"
            },
            {
              "internalType": "bool",
              "name": "live",
              "type": "bool"
            },
            {
              "internalType": "uint256",
              "name": "bids",
              "type": "uint256"
            },
            {
              "internalType": "uint256",
              "name": "duration",
              "type": "uint256"
            },
            {
              "internalType": "bool",
              "name": "biddable",
              "type": "bool"
            }
          ],
          "internalType": "struct Auction.AuctionStruct[]",
          "name": "Auctions",
          "type": "tuple[]"
        }
      ],
      "stateMutability": "view",
      "type": "function"
    },
    {
      "inputs": [],
      "name": "getUnsoldAuctions",
      "outputs": [
        {
          "components": [
            {
              "internalType": "string",
              "name": "name",
              "type": "string"
            },
            {
              "internalType": "string",
              "name": "description",
              "type": "string"
            },
            {
              "internalType": "string",
              "name": "image",
              "type": "string"
            },
            {
              "internalType": "uint256",
              "name": "tokenId",
              "type": "uint256"
            },
            {
              "internalType": "address",
              "name": "seller",
              "type": "address"
            },
            {
              "internalType": "address",
              "name": "owner",
              "type": "address"
            },
            {
              "internalType": "address",
              "name": "winner",
              "type": "address"
            },
            {
              "internalType": "uint256",
              "name": "price",
              "type": "uint256"
            },
            {
              "internalType": "bool",
              "name": "sold",
              "type": "bool"
            },
            {
              "internalType": "bool",
              "name": "live",
              "type": "bool"
            },
            {
              "internalType": "uint256",
              "name": "bids",
              "type": "uint256"
            },
            {
              "internalType": "uint256",
              "name": "duration",
              "type": "uint256"
            },
            {
              "internalType": "bool",
              "name": "biddable",
              "type": "bool"
            }
          ],
          "internalType": "struct Auction.AuctionStruct[]",
          "name": "Auctions",
          "type": "tuple[]"
        }
      ],
      "stateMutability": "view",
      "type": "function"
    },
    {
      "inputs": [
        {
          "internalType": "address",
          "name": "owner",
          "type": "address"
        },
        {
          "internalType": "address",
          "name": "operator",
          "type": "address"
        }
      ],
      "name": "isApprovedForAll",
      "outputs": [
        {
          "internalType": "bool",
          "name": "",
          "type": "bool"
        }
      ],
      "stateMutability": "view",
      "type": "function"
    },
    {
      "inputs": [],
      "name": "name",
      "outputs": [
        {
          "internalType": "string",
          "name": "",
          "type": "string"
        }
      ],
      "stateMutability": "view",
      "type": "function"
    },
    {
      "inputs": [
        {
          "internalType": "uint256",
          "name": "tokenId",
          "type": "uint256"
        },
        {
          "internalType": "bool",
          "name": "biddable",
          "type": "bool"
        },
        {
          "internalType": "uint256",
          "name": "sec",
          "type": "uint256"
        },
        {
          "internalType": "uint256",
          "name": "min",
          "type": "uint256"
        },
        {
          "internalType": "uint256",
          "name": "hour",
          "type": "uint256"
        },
        {
          "internalType": "uint256",
          "name": "day",
          "type": "uint256"
        }
      ],
      "name": "offerAuction",
      "outputs": [],
      "stateMutability": "nonpayable",
      "type": "function"
    },
    {
      "inputs": [
        {
          "internalType": "uint256",
          "name": "tokenId",
          "type": "uint256"
        }
      ],
      "name": "ownerOf",
      "outputs": [
        {
          "internalType": "address",
          "name": "",
          "type": "address"
        }
      ],
      "stateMutability": "view",
      "type": "function"
    },
    {
      "inputs": [
        {
          "internalType": "uint256",
          "name": "tokenId",
          "type": "uint256"
        }
      ],
      "name": "placeBid",
      "outputs": [],
      "stateMutability": "payable",
      "type": "function"
    },
    {
      "inputs": [],
      "name": "royaltyFee",
      "outputs": [
        {
          "internalType": "uint256",
          "name": "",
          "type": "uint256"
        }
      ],
      "stateMutability": "view",
      "type": "function"
    },
    {
      "inputs": [
        {
          "internalType": "address",
          "name": "from",
          "type": "address"
        },
        {
          "internalType": "address",
          "name": "to",
          "type": "address"
        },
        {
          "internalType": "uint256",
          "name": "tokenId",
          "type": "uint256"
        }
      ],
      "name": "safeTransferFrom",
      "outputs": [],
      "stateMutability": "nonpayable",
      "type": "function"
    },
    {
      "inputs": [
        {
          "internalType": "address",
          "name": "from",
          "type": "address"
        },
        {
          "internalType": "address",
          "name": "to",
          "type": "address"
        },
        {
          "internalType": "uint256",
          "name": "tokenId",
          "type": "uint256"
        },
        {
          "internalType": "bytes",
          "name": "data",
          "type": "bytes"
        }
      ],
      "name": "safeTransferFrom",
      "outputs": [],
      "stateMutability": "nonpayable",
      "type": "function"
    },
    {
      "inputs": [
        {
          "internalType": "address",
          "name": "operator",
          "type": "address"
        },
        {
          "internalType": "bool",
          "name": "approved",
          "type": "bool"
        }
      ],
      "name": "setApprovalForAll",
      "outputs": [],
      "stateMutability": "nonpayable",
      "type": "function"
    },
    {
      "inputs": [
        {
          "internalType": "uint256",
          "name": "price",
          "type": "uint256"
        }
      ],
      "name": "setListingPrice",
      "outputs": [],
      "stateMutability": "nonpayable",
      "type": "function"
    },
    {
      "inputs": [
        {
          "internalType": "bytes4",
          "name": "interfaceId",
          "type": "bytes4"
        }
      ],
      "name": "supportsInterface",
      "outputs": [
        {
          "internalType": "bool",
          "name": "",
          "type": "bool"
        }
      ],
      "stateMutability": "view",
      "type": "function"
    },
    {
      "inputs": [],
      "name": "symbol",
      "outputs": [
        {
          "internalType": "string",
          "name": "",
          "type": "string"
        }
      ],
      "stateMutability": "view",
      "type": "function"
    },
    {
      "inputs": [
        {
          "internalType": "uint256",
          "name": "tokenId",
          "type": "uint256"
        }
      ],
      "name": "tokenURI",
      "outputs": [
        {
          "internalType": "string",
          "name": "",
          "type": "string"
        }
      ],
      "stateMutability": "view",
      "type": "function"
    },
    {
      "inputs": [
        {
          "internalType": "address",
          "name": "from",
          "type": "address"
        },
        {
          "internalType": "address",
          "name": "to",
          "type": "address"
        },
        {
          "internalType": "uint256",
          "name": "tokenId",
          "type": "uint256"
        }
      ],
      "name": "transferFrom",
      "outputs": [],
      "stateMutability": "nonpayable",
      "type": "function"
    }
  ],
  "bytecode": "0x608060405266470de4df820000600b553480156200001c57600080fd5b5060405162004421380380620044218339810160408190526200003f9162000170565b604080518082018252600f81526e44616c746f6e696320546f6b656e7360881b60208083019182528351808501909452600384526211105560ea1b9084015281519192916200009191600091620000ca565b508051620000a7906001906020840190620000ca565b5050600160075550600955600a80546001600160a01b03191633179055620001c7565b828054620000d8906200018a565b90600052602060002090601f016020900481019282620000fc576000855562000147565b82601f106200011757805160ff191683800117855562000147565b8280016001018555821562000147579182015b82811115620001475782518255916020019190600101906200012a565b506200015592915062000159565b5090565b5b808211156200015557600081556001016200015a565b6000602082840312156200018357600080fd5b5051919050565b600181811c908216806200019f57607f821691505b60208210811415620001c157634e487b7160e01b600052602260045260246000fd5b50919050565b61424a80620001d76000396000f3fe6080604052600436106101cd5760003560e01c80637c726b69116100f7578063b88d4fde11610095578063d36acc3911610064578063d36acc391461050e578063db0bd5c91461052e578063e985e9c514610543578063f5a06acf1461058c57600080fd5b8063b88d4fde146104a3578063b8997a97146104c3578063bf65a333146104d9578063c87b56dd146104ee57600080fd5b80639c196f7f116100d15780639c196f7f1461042e578063a22cb46514610443578063a923f18c14610463578063b3de019c1461048357600080fd5b80637c726b69146103e657806395d89b41146104065780639979ef451461041b57600080fd5b806342842e0e1161016f57806370a082311161013e57806370a08231146103645780637327df251461038457806378bd7935146103995780637b154140146103c657600080fd5b806342842e0e146102d55780634fa7b507146102f557806355faaa33146103225780636352211e1461034457600080fd5b8063095ea7b3116101ab578063095ea7b31461026157806312e855851461028357806323b872dd146102a257806333748dcb146102c257600080fd5b806301ffc9a7146101d257806306fdde0314610207578063081812fc14610229575b600080fd5b3480156101de57600080fd5b506101f26101ed3660046139cd565b61059f565b60405190151581526020015b60405180910390f35b34801561021357600080fd5b5061021c6105f1565b6040516101fe9190613a42565b34801561023557600080fd5b50610249610244366004613a55565b610683565b6040516001600160a01b0390911681526020016101fe565b34801561026d57600080fd5b5061028161027c366004613a8a565b6106aa565b005b34801561028f57600080fd5b50600b545b6040519081526020016101fe565b3480156102ae57600080fd5b506102816102bd366004613ab4565b6107c5565b6102816102d0366004613b9c565b6107f6565b3480156102e157600080fd5b506102816102f0366004613ab4565b610c3e565b34801561030157600080fd5b50610315610310366004613a55565b610c59565b6040516101fe9190613c51565b34801561032e57600080fd5b50610337610d0b565b6040516101fe9190613dcc565b34801561035057600080fd5b5061024961035f366004613a55565b6110a3565b34801561037057600080fd5b5061029461037f366004613e2e565b611103565b34801561039057600080fd5b50610337611189565b3480156103a557600080fd5b506103b96103b4366004613a55565b611493565b6040516101fe9190613e49565b3480156103d257600080fd5b506102816103e1366004613e5c565b6116f9565b3480156103f257600080fd5b50610281610401366004613a55565b61194e565b34801561041257600080fd5b5061021c6119a4565b610281610429366004613a55565b6119b3565b34801561043a57600080fd5b50610337611be5565b34801561044f57600080fd5b5061028161045e366004613e8e565b611f75565b34801561046f57600080fd5b5061028161047e366004613ec1565b611f84565b34801561048f57600080fd5b5061028161049e366004613e5c565b612123565b3480156104af57600080fd5b506102816104be366004613f0f565b612253565b3480156104cf57600080fd5b5061029460095481565b3480156104e557600080fd5b5061033761228b565b3480156104fa57600080fd5b5061021c610509366004613a55565b61262d565b34801561051a57600080fd5b50600a54610249906001600160a01b031681565b34801561053a57600080fd5b5061033761273e565b34801561054f57600080fd5b506101f261055e366004613f8b565b6001600160a01b03918216600090815260056020908152604080832093909416825291909152205460ff1690565b61028161059a366004613a55565b612ae4565b60006001600160e01b031982166380ac58cd60e01b14806105d057506001600160e01b03198216635b5e139f60e01b145b806105eb57506301ffc9a760e01b6001600160e01b03198316145b92915050565b60606000805461060090613fb5565b80601f016020809104026020016040519081016040528092919081815260200182805461062c90613fb5565b80156106795780601f1061064e57610100808354040283529160200191610679565b820191906000526020600020905b81548152906001019060200180831161065c57829003601f168201915b5050505050905090565b600061068e82612d29565b506000908152600460205260409020546001600160a01b031690565b60006106b5826110a3565b9050806001600160a01b0316836001600160a01b031614156107285760405162461bcd60e51b815260206004820152602160248201527f4552433732313a20617070726f76616c20746f2063757272656e74206f776e656044820152603960f91b60648201526084015b60405180910390fd5b336001600160a01b03821614806107445750610744813361055e565b6107b65760405162461bcd60e51b815260206004820152603d60248201527f4552433732313a20617070726f76652063616c6c6572206973206e6f7420746f60448201527f6b656e206f776e6572206f7220617070726f76656420666f7220616c6c000000606482015260840161071f565b6107c08383612d88565b505050565b6107cf3382612df6565b6107eb5760405162461bcd60e51b815260040161071f90613ff0565b6107c0838383612e74565b6107fe612fd8565b6000811161085c5760405162461bcd60e51b815260206004820152602560248201527f73616c6573207072696365206d7573742062652067726561746572207468616e604482015264205a65726f60d81b606482015260840161071f565b600b543410156108c35760405162461bcd60e51b815260206004820152602c60248201527f5072696365206d7573742062652067726561746572207468616e20746865206c60448201526b697374696e6720707269636560a01b606482015260840161071f565b600085511161090b5760405162461bcd60e51b81526020600482015260146024820152734e616d6520636f6e6e6f7420626520656d70747960601b604482015260640161071f565b600084511161095c5760405162461bcd60e51b815260206004820152601b60248201527f4465736372697074696f6e20636f6e6e6f7420626520656d7074790000000000604482015260640161071f565b60008351116109a55760405162461bcd60e51b8152602060048201526015602482015274496d61676520636f6e6e6f7420626520656d70747960581b604482015260640161071f565b60008251116109f65760405162461bcd60e51b815260206004820152601860248201527f546f6b656e55524920636f6e6e6f7420626520656d7074790000000000000000604482015260640161071f565b6109ff82613032565b610a425760405162461bcd60e51b815260206004820152601460248201527321b7bab632103737ba1036b4b73a103a37b5b2b760611b604482015260640161071f565b6000610a4d60085490565b9050610a5761383e565b60608101829052868152602081018690526040810185905260e08101839052610a83600080808061306c565b610160820152336080820181905260a08201526000828152600c60209081526040909120825180518493610abb9284929101906138c7565b506020828101518051610ad492600185019201906138c7565b5060408201518051610af09160028401916020909101906138c7565b506060820151600382015560808201516004820180546001600160a01b03199081166001600160a01b039384161790915560a0840151600584018054831691841691909117905560c084015160068401805490921690831617905560e083015160078301556101008084015160088401805461012087015161ffff1990911692151561ff001916929092179115159092021790556101408301516009830155610160830151600a8084019190915561018090930151600b909201805460ff199081169315159390931790556000858152600d6020526040902080549092166001179091559054610be19116346130ce565b604080513381526000602082018190528183018690526060820152905183917fa693a8f68fe4df789541ddd1b84d32ccaea90adddcc88406b4bbbf6466328d3c919081900360800190a25050610c376001600755565b5050505050565b6107c083838360405180602001604052806000815250612253565b6060600e6000838152602001908152602001600020805480602002602001604051908101604052809291908181526020016000905b82821015610d005760008481526020908190206040805160a0810182526004860290920180546001600160a01b03168352600180820154848601526002820154928401929092526003015460ff8082161515606085015261010090910416151560808301529083529092019101610c8e565b505050509050919050565b60606000805b600854811015610d6657600c6000610d2a836001614053565b815260208101919091526040016000206008015460ff1615610d545781610d508161406b565b9250505b80610d5e8161406b565b915050610d11565b508067ffffffffffffffff811115610d8057610d80613af0565b604051908082528060200260200182016040528015610db957816020015b610da661383e565b815260200190600190039081610d9e5790505b5091506000805b60085481101561109d57600c6000610dd9836001614053565b815260208101919091526040016000206008015460ff161561108b57600c6000610e04836001614053565b8152602001908152602001600020604051806101a0016040529081600082018054610e2e90613fb5565b80601f0160208091040260200160405190810160405280929190818152602001828054610e5a90613fb5565b8015610ea75780601f10610e7c57610100808354040283529160200191610ea7565b820191906000526020600020905b815481529060010190602001808311610e8a57829003601f168201915b50505050508152602001600182018054610ec090613fb5565b80601f0160208091040260200160405190810160405280929190818152602001828054610eec90613fb5565b8015610f395780601f10610f0e57610100808354040283529160200191610f39565b820191906000526020600020905b815481529060010190602001808311610f1c57829003601f168201915b50505050508152602001600282018054610f5290613fb5565b80601f0160208091040260200160405190810160405280929190818152602001828054610f7e90613fb5565b8015610fcb5780601f10610fa057610100808354040283529160200191610fcb565b820191906000526020600020905b815481529060010190602001808311610fae57829003601f168201915b50505091835250506003820154602082015260048201546001600160a01b0390811660408301526005830154811660608301526006830154166080820152600782015460a0820152600882015460ff808216151560c0840152610100918290048116151560e0840152600984015491830191909152600a830154610120830152600b90920154909116151561014090910152845185908490811061107157611071614086565b602002602001018190525081806110879061406b565b9250505b806110958161406b565b915050610dc0565b50505090565b6000818152600260205260408120546001600160a01b0316806105eb5760405162461bcd60e51b8152602060048201526018602482015277115490cdcc8c4e881a5b9d985b1a59081d1bdad95b88125160421b604482015260640161071f565b60006001600160a01b03821661116d5760405162461bcd60e51b815260206004820152602960248201527f4552433732313a2061646472657373207a65726f206973206e6f7420612076616044820152683634b21037bbb732b960b91b606482015260840161071f565b506001600160a01b031660009081526003602052604090205490565b606061119460085490565b67ffffffffffffffff8111156111ac576111ac613af0565b6040519080825280602002602001820160405280156111e557816020015b6111d261383e565b8152602001906001900390816111ca5790505b50905060005b60085481101561148f57600c6000611204836001614053565b8152602001908152602001600020604051806101a001604052908160008201805461122e90613fb5565b80601f016020809104026020016040519081016040528092919081815260200182805461125a90613fb5565b80156112a75780601f1061127c576101008083540402835291602001916112a7565b820191906000526020600020905b81548152906001019060200180831161128a57829003601f168201915b505050505081526020016001820180546112c090613fb5565b80601f01602080910402602001604051908101604052809291908181526020018280546112ec90613fb5565b80156113395780601f1061130e57610100808354040283529160200191611339565b820191906000526020600020905b81548152906001019060200180831161131c57829003601f168201915b5050505050815260200160028201805461135290613fb5565b80601f016020809104026020016040519081016040528092919081815260200182805461137e90613fb5565b80156113cb5780601f106113a0576101008083540402835291602001916113cb565b820191906000526020600020905b8154815290600101906020018083116113ae57829003601f168201915b50505091835250506003820154602082015260048201546001600160a01b0390811660408301526005830154811660608301526006830154166080820152600782015460a0820152600882015460ff808216151560c0840152610100918290048116151560e0840152600984015491830191909152600a830154610120830152600b90920154909116151561014090910152825183908390811061147157611471614086565b602002602001018190525080806114879061406b565b9150506111eb565b5090565b61149b61383e565b6000828152600c60205260409081902081516101a081019092528054829082906114c490613fb5565b80601f01602080910402602001604051908101604052809291908181526020018280546114f090613fb5565b801561153d5780601f106115125761010080835404028352916020019161153d565b820191906000526020600020905b81548152906001019060200180831161152057829003601f168201915b5050505050815260200160018201805461155690613fb5565b80601f016020809104026020016040519081016040528092919081815260200182805461158290613fb5565b80156115cf5780601f106115a4576101008083540402835291602001916115cf565b820191906000526020600020905b8154815290600101906020018083116115b257829003601f168201915b505050505081526020016002820180546115e890613fb5565b80601f016020809104026020016040519081016040528092919081815260200182805461161490613fb5565b80156116615780601f1061163657610100808354040283529160200191611661565b820191906000526020600020905b81548152906001019060200180831161164457829003601f168201915b50505091835250506003820154602082015260048201546001600160a01b0390811660408301526005830154811660608301526006830154166080820152600782015460a0820152600882015460ff808216151560c0840152610100918290048116151560e0840152600984015491830191909152600a830154610120830152600b9092015490911615156101409091015292915050565b6000828152600c60205260408120600a0154906117189080808061306c565b1161175a5760405162461bcd60e51b815260206004820152601260248201527141756374696f6e207374696c6c206c69766560701b604482015260640161071f565b6000828152600c60205260409020600601546001600160a01b031633146117c35760405162461bcd60e51b815260206004820152601c60248201527f596f752068617665206e6f7420776f6e207468652061756374696f6e00000000604482015260640161071f565b6000828152600e60205260409020805460019190839081106117e7576117e7614086565b906000526020600020906004020160030160016101000a81548160ff0219169083151502179055506000600c6000848152602001908152602001600020600701549050600060646009548361183c919061409c565b61184691906140bb565b6000858152600c6020526040812060048101546005820180546006840180546001600160a01b031990811690915560088501805461ffff191660011790556009909401859055928316331790559293506001600160a01b039283169216906118b09080808061306c565b6000878152600c60205260409020600a01556118d5816118d085876140dd565b6130ce565b6118df82846130ce565b6040516323b872dd60e01b8152306004820181905233602483015260448201889052906323b872dd90606401600060405180830381600087803b15801561192557600080fd5b505af1158015611939573d6000803e3d6000fd5b505050506119468661312e565b505050505050565b600a546001600160a01b0316331461199f5760405162461bcd60e51b8152602060048201526014602482015273556e617574686f72697a656420656e746974792160601b604482015260640161071f565b600b55565b60606001805461060090613fb5565b6000818152600c6020526040902060070154341015611a095760405162461bcd60e51b8152602060048201526012602482015271125b9cdd59999a58d95b9d08105b5bdd5b9d60721b604482015260640161071f565b611a1760008060008061306c565b6000828152600c60205260409020600a015411611a765760405162461bcd60e51b815260206004820152601c60248201527f41756374696f6e6564206974656d206e6f7420617661696c61626c6500000000604482015260640161071f565b6000818152600c60205260409020600b015460ff16611ad75760405162461bcd60e51b815260206004820152601860248201527f41756374696f6e206d757374206265206269646461626c650000000000000000604482015260640161071f565b6040805160a0810182526000918101829052606081018290526080810182905233815234602082015290611b0d9080808061306c565b60408083019182526000848152600e6020908152828220805460018181018355918452828420875160049092020180546001600160a01b039092166001600160a01b0319909216919091178155828701519181019190915593516002850155606085015160039094018054608087015115156101000261ff00199615159690961661ffff199091161794909417909355848152600c9092528120600901805491611bb68361406b565b9091555050506000908152600c6020526040902034600782015560060180546001600160a01b03191633179055565b60606000805b600854811015611c3f57600c6000611c04836001614053565b815260208101919091526040016000206008015460ff16611c2d5781611c298161406b565b9250505b80611c378161406b565b915050611beb565b508067ffffffffffffffff811115611c5957611c59613af0565b604051908082528060200260200182016040528015611c9257816020015b611c7f61383e565b815260200190600190039081611c775790505b5091506000805b60085481101561109d57600c6000611cb2836001614053565b815260208101919091526040016000206008015460ff16611f6357600c6000611cdc836001614053565b8152602001908152602001600020604051806101a0016040529081600082018054611d0690613fb5565b80601f0160208091040260200160405190810160405280929190818152602001828054611d3290613fb5565b8015611d7f5780601f10611d5457610100808354040283529160200191611d7f565b820191906000526020600020905b815481529060010190602001808311611d6257829003601f168201915b50505050508152602001600182018054611d9890613fb5565b80601f0160208091040260200160405190810160405280929190818152602001828054611dc490613fb5565b8015611e115780601f10611de657610100808354040283529160200191611e11565b820191906000526020600020905b815481529060010190602001808311611df457829003601f168201915b50505050508152602001600282018054611e2a90613fb5565b80601f0160208091040260200160405190810160405280929190818152602001828054611e5690613fb5565b8015611ea35780601f10611e7857610100808354040283529160200191611ea3565b820191906000526020600020905b815481529060010190602001808311611e8657829003601f168201915b50505091835250506003820154602082015260048201546001600160a01b0390811660408301526005830154811660608301526006830154166080820152600782015460a0820152600882015460ff808216151560c0840152610100918290048116151560e0840152600984015491830191909152600a830154610120830152600b909201549091161515610140909101528451859084908110611f4957611f49614086565b60200260200101819052508180611f5f9061406b565b9250505b80611f6d8161406b565b915050611c99565b611f80338383613233565b5050565b6000868152600c60205260409020600501546001600160a01b03163314611fe35760405162461bcd60e51b8152602060048201526013602482015272556e617574686f72697a656420656e7469747960681b604482015260640161071f565b6000868152600c60205260409020600901541561203a5760405162461bcd60e51b8152602060048201526015602482015274576f6e2061756374696f6e20636c61696d206e6f7760581b604482015260640161071f565b6000868152600c6020526040902060080154610100900460ff166120c257612063306001611f75565b6040516323b872dd60e01b8152336004820152306024820181905260448201889052906323b872dd90606401600060405180830381600087803b1580156120a957600080fd5b505af11580156120bd573d6000803e3d6000fd5b505050505b6000868152600c60205260408120600981019190915560088101805461010061ffff19909116179055600b01805460ff19168615151790556121068484848461306c565b6000968752600c6020526040909620600a01959095555050505050565b6000828152600c60205260409020600501546001600160a01b031633146121825760405162461bcd60e51b8152602060048201526013602482015272556e617574686f72697a656420656e7469747960681b604482015260640161071f565b6000828152600c60205260408120600a0154906121a19080808061306c565b116121e35760405162461bcd60e51b815260206004820152601260248201527141756374696f6e207374696c6c206c69766560701b604482015260640161071f565b6000811161223e5760405162461bcd60e51b815260206004820152602260248201527f5072696365206d7573742062652067726561746572207468616e20302045746860448201526132b960f11b606482015260840161071f565b6000918252600c602052604090912060070155565b61225d3383612df6565b6122795760405162461bcd60e51b815260040161071f90613ff0565b61228584848484613302565b50505050565b60606000805b6008548110156122ee5733600c60006122ab846001614053565b81526020810191909152604001600020600501546001600160a01b031614156122dc57816122d88161406b565b9250505b806122e68161406b565b915050612291565b508067ffffffffffffffff81111561230857612308613af0565b60405190808252806020026020018201604052801561234157816020015b61232e61383e565b8152602001906001900390816123265790505b5091506000805b60085481101561109d5733600c6000612362846001614053565b81526020810191909152604001600020600501546001600160a01b0316141561261b57600c6000612394836001614053565b8152602001908152602001600020604051806101a00160405290816000820180546123be90613fb5565b80601f01602080910402602001604051908101604052809291908181526020018280546123ea90613fb5565b80156124375780601f1061240c57610100808354040283529160200191612437565b820191906000526020600020905b81548152906001019060200180831161241a57829003601f168201915b5050505050815260200160018201805461245090613fb5565b80601f016020809104026020016040519081016040528092919081815260200182805461247c90613fb5565b80156124c95780601f1061249e576101008083540402835291602001916124c9565b820191906000526020600020905b8154815290600101906020018083116124ac57829003601f168201915b505050505081526020016002820180546124e290613fb5565b80601f016020809104026020016040519081016040528092919081815260200182805461250e90613fb5565b801561255b5780601f106125305761010080835404028352916020019161255b565b820191906000526020600020905b81548152906001019060200180831161253e57829003601f168201915b50505091835250506003820154602082015260048201546001600160a01b0390811660408301526005830154811660608301526006830154166080820152600782015460a0820152600882015460ff808216151560c0840152610100918290048116151560e0840152600984015491830191909152600a830154610120830152600b90920154909116151561014090910152845185908490811061260157612601614086565b602002602001018190525081806126179061406b565b9250505b806126258161406b565b915050612348565b606061263882612d29565b6000828152600660205260408120805461265190613fb5565b80601f016020809104026020016040519081016040528092919081815260200182805461267d90613fb5565b80156126ca5780601f1061269f576101008083540402835291602001916126ca565b820191906000526020600020905b8154815290600101906020018083116126ad57829003601f168201915b5050505050905060006126e860408051602081019091526000815290565b90508051600014156126fb575092915050565b81511561272d5780826040516020016127159291906140f4565b60405160208183030381529060405292505050919050565b61273684613335565b949350505050565b60606000805b6008548110156127a35761275c60008060008061306c565b600c600061276b846001614053565b8152602001908152602001600020600a01541115612791578161278d8161406b565b9250505b8061279b8161406b565b915050612744565b508067ffffffffffffffff8111156127bd576127bd613af0565b6040519080825280602002602001820160405280156127f657816020015b6127e361383e565b8152602001906001900390816127db5790505b5091506000805b60085481101561109d5761281560008060008061306c565b600c6000612824846001614053565b8152602001908152602001600020600a01541115612ad257600c600061284b836001614053565b8152602001908152602001600020604051806101a001604052908160008201805461287590613fb5565b80601f01602080910402602001604051908101604052809291908181526020018280546128a190613fb5565b80156128ee5780601f106128c3576101008083540402835291602001916128ee565b820191906000526020600020905b8154815290600101906020018083116128d157829003601f168201915b5050505050815260200160018201805461290790613fb5565b80601f016020809104026020016040519081016040528092919081815260200182805461293390613fb5565b80156129805780601f1061295557610100808354040283529160200191612980565b820191906000526020600020905b81548152906001019060200180831161296357829003601f168201915b5050505050815260200160028201805461299990613fb5565b80601f01602080910402602001604051908101604052809291908181526020018280546129c590613fb5565b8015612a125780601f106129e757610100808354040283529160200191612a12565b820191906000526020600020905b8154815290600101906020018083116129f557829003601f168201915b50505091835250506003820154602082015260048201546001600160a01b0390811660408301526005830154811660608301526006830154166080820152600782015460a0820152600882015460ff808216151560c0840152610100918290048116151560e0840152600984015491830191909152600a830154610120830152600b909201549091161515610140909101528451859084908110612ab857612ab8614086565b60200260200101819052508180612ace9061406b565b9250505b80612adc8161406b565b9150506127fd565b612aec612fd8565b6000818152600c6020526040902060070154341015612b425760405162461bcd60e51b8152602060048201526012602482015271125b9cdd59999a58d95b9d08105b5bdd5b9d60721b604482015260640161071f565b612b5060008060008061306c565b6000828152600c60205260409020600a015411612baf5760405162461bcd60e51b815260206004820152601c60248201527f41756374696f6e6564206974656d206e6f7420617661696c61626c6500000000604482015260640161071f565b6000818152600c60205260409020600b015460ff1615612c115760405162461bcd60e51b815260206004820152601c60248201527f41756374696f6e206d757374206e6f74206265206269646461626c6500000000604482015260640161071f565b6000818152600c602052604081206004810154600582015460088301805461ffff1916600117905560099092018390556001600160a01b0390811692911690612c5c9080808061306c565b6000848152600c60205260408120600a810192909255600590910180546001600160a01b03191633179055600954606490612c97903461409c565b612ca191906140bb565b9050612cb1826118d083346140dd565b612cbb83826130ce565b6040516323b872dd60e01b8152306004820181905233602483015260448201869052906323b872dd90606401600060405180830381600087803b158015612d0157600080fd5b505af1158015612d15573d6000803e3d6000fd5b50505050505050612d266001600755565b50565b6000818152600260205260409020546001600160a01b0316612d265760405162461bcd60e51b8152602060048201526018602482015277115490cdcc8c4e881a5b9d985b1a59081d1bdad95b88125160421b604482015260640161071f565b600081815260046020526040902080546001600160a01b0319166001600160a01b0384169081179091558190612dbd826110a3565b6001600160a01b03167f8c5be1e5ebec7d5bd14f71427d1e84f3dd0314c0f7b2291e5b200ac8c7c3b92560405160405180910390a45050565b600080612e02836110a3565b9050806001600160a01b0316846001600160a01b03161480612e4957506001600160a01b0380821660009081526005602090815260408083209388168352929052205460ff165b806127365750836001600160a01b0316612e6284610683565b6001600160a01b031614949350505050565b826001600160a01b0316612e87826110a3565b6001600160a01b031614612ead5760405162461bcd60e51b815260040161071f90614123565b6001600160a01b038216612f0f5760405162461bcd60e51b8152602060048201526024808201527f4552433732313a207472616e7366657220746f20746865207a65726f206164646044820152637265737360e01b606482015260840161071f565b826001600160a01b0316612f22826110a3565b6001600160a01b031614612f485760405162461bcd60e51b815260040161071f90614123565b600081815260046020908152604080832080546001600160a01b03199081169091556001600160a01b0387811680865260038552838620805460001901905590871680865283862080546001019055868652600290945282852080549092168417909155905184937fddf252ad1be2c89b69c2b068fc378daa952ba7f163c4a11628f55a4df523b3ef91a4505050565b6002600754141561302b5760405162461bcd60e51b815260206004820152601f60248201527f5265656e7472616e637947756172643a207265656e7472616e742063616c6c00604482015260640161071f565b6002600755565b6000613042600880546001019055565b600061304d60085490565b905061305933826133a9565b6130638184613534565b50600192915050565b600061307b826201518061409c565b61308784610e1061409c565b61309286603c61409c565b61309d88600161409c565b6130a79042614053565b6130b19190614053565b6130bb9190614053565b6130c59190614053565b95945050505050565b6000826001600160a01b03168260405160006040518083038185875af1925050503d806000811461311b576040519150601f19603f3d011682016040523d82523d6000602084013e613120565b606091505b50509050806107c057600080fd5b60005b6000828152600e602052604090205481101561321b576000828152600e6020526040812080548390811061316757613167614086565b60009182526020918290206040805160a081018252600490930290910180546001600160a01b03168084526001820154948401949094526002810154918301919091526003015460ff808216151560608401526101009091041615156080820152915033146131ed5760016060820152805160208201516131e891906130ce565b6131f5565b600160808201525b61320360008060008061306c565b604090910152806132138161406b565b915050613131565b506000818152600e60205260408120612d2691613947565b816001600160a01b0316836001600160a01b031614156132955760405162461bcd60e51b815260206004820152601960248201527f4552433732313a20617070726f766520746f2063616c6c657200000000000000604482015260640161071f565b6001600160a01b03838116600081815260056020908152604080832094871680845294825291829020805460ff191686151590811790915591519182527f17307eab39ab6107e8899845ad3d59bd9653f200f220920489ca2b5937696c31910160405180910390a3505050565b61330d848484612e74565b613319848484846135ce565b6122855760405162461bcd60e51b815260040161071f90614168565b606061334082612d29565b600061335760408051602081019091526000815290565b9050600081511161337757604051806020016040528060008152506133a2565b80613381846136c9565b6040516020016133929291906140f4565b6040516020818303038152906040525b9392505050565b6001600160a01b0382166133ff5760405162461bcd60e51b815260206004820181905260248201527f4552433732313a206d696e7420746f20746865207a65726f2061646472657373604482015260640161071f565b6000818152600260205260409020546001600160a01b0316156134645760405162461bcd60e51b815260206004820152601c60248201527f4552433732313a20746f6b656e20616c7265616479206d696e74656400000000604482015260640161071f565b6000818152600260205260409020546001600160a01b0316156134c95760405162461bcd60e51b815260206004820152601c60248201527f4552433732313a20746f6b656e20616c7265616479206d696e74656400000000604482015260640161071f565b6001600160a01b038216600081815260036020908152604080832080546001019055848352600290915280822080546001600160a01b0319168417905551839291907fddf252ad1be2c89b69c2b068fc378daa952ba7f163c4a11628f55a4df523b3ef908290a45050565b6000828152600260205260409020546001600160a01b03166135af5760405162461bcd60e51b815260206004820152602e60248201527f45524337323155524953746f726167653a2055524920736574206f66206e6f6e60448201526d32bc34b9ba32b73a103a37b5b2b760911b606482015260840161071f565b600082815260066020908152604090912082516107c0928401906138c7565b60006001600160a01b0384163b156136c157604051630a85bd0160e11b81526001600160a01b0385169063150b7a02906136129033908990889088906004016141ba565b6020604051808303816000875af192505050801561364d575060408051601f3d908101601f1916820190925261364a918101906141f7565b60015b6136a7573d80801561367b576040519150601f19603f3d011682016040523d82523d6000602084013e613680565b606091505b50805161369f5760405162461bcd60e51b815260040161071f90614168565b805181602001fd5b6001600160e01b031916630a85bd0160e11b149050612736565b506001612736565b606060006136d683613766565b600101905060008167ffffffffffffffff8111156136f6576136f6613af0565b6040519080825280601f01601f191660200182016040528015613720576020820181803683370190505b5090508181016020015b600019016f181899199a1a9b1b9c1cb0b131b232b360811b600a86061a8153600a85049450846137595761375e565b61372a565b509392505050565b60008072184f03e93ff9f4daa797ed6e38ed64bf6a1f0160401b83106137a55772184f03e93ff9f4daa797ed6e38ed64bf6a1f0160401b830492506040015b6d04ee2d6d415b85acef810000000083106137d1576d04ee2d6d415b85acef8100000000830492506020015b662386f26fc1000083106137ef57662386f26fc10000830492506010015b6305f5e1008310613807576305f5e100830492506008015b612710831061381b57612710830492506004015b6064831061382d576064830492506002015b600a83106105eb5760010192915050565b604051806101a001604052806060815260200160608152602001606081526020016000815260200160006001600160a01b0316815260200160006001600160a01b0316815260200160006001600160a01b031681526020016000815260200160001515815260200160001515815260200160008152602001600081526020016000151581525090565b8280546138d390613fb5565b90600052602060002090601f0160209004810192826138f5576000855561393b565b82601f1061390e57805160ff191683800117855561393b565b8280016001018555821561393b579182015b8281111561393b578251825591602001919060010190613920565b5061148f929150613968565b5080546000825560040290600052602060002090810190612d26919061397d565b5b8082111561148f5760008155600101613969565b5b8082111561148f5780546001600160a01b0319168155600060018201819055600282015560038101805461ffff1916905560040161397e565b6001600160e01b031981168114612d2657600080fd5b6000602082840312156139df57600080fd5b81356133a2816139b7565b60005b83811015613a055781810151838201526020016139ed565b838111156122855750506000910152565b60008151808452613a2e8160208601602086016139ea565b601f01601f19169290920160200192915050565b6020815260006133a26020830184613a16565b600060208284031215613a6757600080fd5b5035919050565b80356001600160a01b0381168114613a8557600080fd5b919050565b60008060408385031215613a9d57600080fd5b613aa683613a6e565b946020939093013593505050565b600080600060608486031215613ac957600080fd5b613ad284613a6e565b9250613ae060208501613a6e565b9150604084013590509250925092565b634e487b7160e01b600052604160045260246000fd5b600067ffffffffffffffff80841115613b2157613b21613af0565b604051601f8501601f19908116603f01168101908282118183101715613b4957613b49613af0565b81604052809350858152868686011115613b6257600080fd5b858560208301376000602087830101525050509392505050565b600082601f830112613b8d57600080fd5b6133a283833560208501613b06565b600080600080600060a08688031215613bb457600080fd5b853567ffffffffffffffff80821115613bcc57600080fd5b613bd889838a01613b7c565b96506020880135915080821115613bee57600080fd5b613bfa89838a01613b7c565b95506040880135915080821115613c1057600080fd5b613c1c89838a01613b7c565b94506060880135915080821115613c3257600080fd5b50613c3f88828901613b7c565b95989497509295608001359392505050565b602080825282518282018190526000919060409081850190868401855b82811015613cbf57815180516001600160a01b031685528681015187860152858101518686015260608082015115159086015260809081015115159085015260a09093019290850190600101613c6e565b5091979650505050505050565b60006101a08251818552613ce282860182613a16565b91505060208301518482036020860152613cfc8282613a16565b91505060408301518482036040860152613d168282613a16565b915050606083015160608501526080830151613d3d60808601826001600160a01b03169052565b5060a0830151613d5860a08601826001600160a01b03169052565b5060c0830151613d7360c08601826001600160a01b03169052565b5060e083015160e085015261010080840151613d928287018215159052565b5050610120838101511515908501526101408084015190850152610160808401519085015261018092830151151592909301919091525090565b6000602080830181845280855180835260408601915060408160051b870101925083870160005b82811015613e2157603f19888603018452613e0f858351613ccc565b94509285019290850190600101613df3565b5092979650505050505050565b600060208284031215613e4057600080fd5b6133a282613a6e565b6020815260006133a26020830184613ccc565b60008060408385031215613e6f57600080fd5b50508035926020909101359150565b80358015158114613a8557600080fd5b60008060408385031215613ea157600080fd5b613eaa83613a6e565b9150613eb860208401613e7e565b90509250929050565b60008060008060008060c08789031215613eda57600080fd5b86359550613eea60208801613e7e565b95989597505050506040840135936060810135936080820135935060a0909101359150565b60008060008060808587031215613f2557600080fd5b613f2e85613a6e565b9350613f3c60208601613a6e565b925060408501359150606085013567ffffffffffffffff811115613f5f57600080fd5b8501601f81018713613f7057600080fd5b613f7f87823560208401613b06565b91505092959194509250565b60008060408385031215613f9e57600080fd5b613fa783613a6e565b9150613eb860208401613a6e565b600181811c90821680613fc957607f821691505b60208210811415613fea57634e487b7160e01b600052602260045260246000fd5b50919050565b6020808252602d908201527f4552433732313a2063616c6c6572206973206e6f7420746f6b656e206f776e6560408201526c1c881bdc88185c1c1c9bdd9959609a1b606082015260800190565b634e487b7160e01b600052601160045260246000fd5b600082198211156140665761406661403d565b500190565b600060001982141561407f5761407f61403d565b5060010190565b634e487b7160e01b600052603260045260246000fd5b60008160001904831182151516156140b6576140b661403d565b500290565b6000826140d857634e487b7160e01b600052601260045260246000fd5b500490565b6000828210156140ef576140ef61403d565b500390565b600083516141068184602088016139ea565b83519083019061411a8183602088016139ea565b01949350505050565b60208082526025908201527f4552433732313a207472616e736665722066726f6d20696e636f72726563742060408201526437bbb732b960d91b606082015260800190565b60208082526032908201527f4552433732313a207472616e7366657220746f206e6f6e20455243373231526560408201527131b2b4bb32b91034b6b83632b6b2b73a32b960711b606082015260800190565b6001600160a01b03858116825284166020820152604081018390526080606082018190526000906141ed90830184613a16565b9695505050505050565b60006020828403121561420957600080fd5b81516133a2816139b756fea2646970667358221220bee965944c10cc9ac4cea0aa4f32c4844297a6812d133204c836d004ae7bcc3b64736f6c634300080b0033",
  "linkReferences": {},
  "deployedLinkReferences": {}
}